:020000040800F2
:10000000F0300020A50100085F0C0008790A000804
:100010005B0C000895090008C112000800000000F0
:10002000000000000000000000000000270F000892
:100030009909000800000000ED0C0008510F0008AD
:10004000BF010008BF010008BF010008BF01000890
:10005000BF010008BF010008BF010008BF01000880
:10006000BF010008BF010008BF010008BF01000870
:10007000BF010008BF010008BF010008BF01000860
:10008000BF010008BF010008BF010008BF01000850
:10009000BF010008BF010008BF010008BF01000840
:1000A000BF010008BF010008BF010008BF01000830
:1000B000BF010008BF010008BF010008BF01000820
:1000C000BF010008BF010008BF010008BF01000810
:1000D000BF010008BF010008BF010008BF01000800
:1000E000BF010008BF010008BF010008BF010008F0
:1000F000BF010008BF010008BF010008BF010008E0
:10010000BF010008BF010008BF010008BF010008CF
:10011000BF010008BF010008BD0F0008BF010008B3
:10012000BF010008BF010008BF010008BF010008AF
:10013000BF010008BF010008BF010008BF0100089F
:10014000BF010008BF010008BF010008BF0100088F
:10015000BF010008BF010008BF010008BF0100087F
:10016000BF010008BF010008BF010008BF0100086F
:10017000BF010008BF010008BF010008BF0100085F
:10018000BF010008BF010008DFF814D000F098FBA1
:1001900000F036F800480047B94A000800F0B6FA07
:1001A000F03000200648804706480047FEE7FEE79B
:1001B000FEE7FEE7FEE7FEE7FEE7FEE7FEE7FEE717
:1001C000550F00088901000840EA01039B0703D08E
:1001D00009E008C9121F08C0042AFAD203E011F886
:1001E000013B00F8013B521EF9D27047034611F85B
:1001F000012B00F8012B002AF9D1184670470000A6
:1002000070B5054C054D03E0206820448047241D4F
:10021000AC42F9D170BD0000084E00080C4E000839
:100220002DE9F041074615460E46102004F002FD68
:1002300004000AD06760C4E9026500F059FA016859
:10024000216004600020BDE8F0810120FBE72DE97A
:10025000FE4F804681EA0300C00F0C46009021F05B
:10026000004123F00045B8EB0200A94105D2404609
:10027000214690461C460B46024623F000401043A0
:1002800047D0270DC7F30A00C3F30A510290401A62
:10029000019040286BDAC3F3130040F4801B0098F0
:1002A000924620B10023D2EB030A63EB0B0B0198BB
:1002B0005946C0F14002504600F0F9F906460D4695
:1002C00050465946019A00F001FA10EB08006141CE
:1002D000002487EA115284EAE7731A4340D0009A57
:1002E00062B3019A012A4FEA075215DC001B61EB49
:1002F00002014FF0004202EA0752CDE90042001C21
:1003000041F5801132462B4600F067FA03B0BDE894
:10031000F08F40462146F9E7001B61EB0201001C0B
:1003200041F5801300185B412018A2F5001747EB38
:10033000030140EAD570B6196D4111E06D084FEA2E
:10034000360645EAC0754FEA0752001B61EB020111
:10035000001C41F5801149084FEA30000019514155
:1003600032462B4603B0BDE8F04F00F027BA0098A4
:10037000012240000023D0EB020263EBE0730098FF
:1003800021464FEAE074B8EB000061EB0401E9E7B5
:1003900083F000435BE781F0004158E72DE9FE4F11
:1003A00081EA030404F0004421F0004100944FF07E
:1003B000000B23F0004350EA01045ED052EA03042C
:1003C0005BD0C3F30A54C1F30A552C44A4F2F334AE
:1003D0000194A0FB0254C1F3130141F48011C3F353
:1003E000130343F4801301FB024400FB034E840A11
:1003F000970A44EA815447EA8357A4FB07680295A9
:100400008D0A05FB07854FEA932C04FB0C54270546
:10041000029D4FEA065847EA1637B5EB08056EEB22
:10042000070C870E920E47EA811742EA8312A7FB58
:100430000201B6EB0B0164EB00042B0D43EA0C3315
:100440005E1844EB1C50DA465146E7FB0201C5F347
:1004500013044FEA0B3343EA14534FEA0432019C6E
:1004600043EA0603A4F10C040294009CCDE900B415
:1004700000F0B3F903B0BDE8F08F00200146F9E7C2
:100480002DE9F04D81EA030404F0004B21F0004512
:1004900014464FF0000A23F0004150EA050220D034
:1004A00054EA01021DD0C5F30A570246C5F31303EF
:1004B000C1F31300C1F30A5640F4801543F48013CE
:1004C000A7EB0608101BD64608F2FD3873EB0500B3
:1004D00002D308F1010801E092185B41B8F1000F66
:1004E00003DA00200146BDE8F08D00204FF48011B2
:1004F000064684460EE0171B73EB050705D3121B57
:1005000063EB050306434CEA010C49084FEA30004F
:1005100092185B4150EA0107EDD152EA030012D074
:1005200082EA040083EA0501084305D0101BAB41B1
:1005300006D20122002306E000224FF0004302E031
:100540006FF0010253101AEB06004CEB085110EB50
:100550000A0041EB0B01BDE8F04D00F02FB900F0AF
:10056000004230F000400AD0C10D01F56071C0F3C7
:10057000160042EA0151C2084007114370470020AB
:100580000146704730B5041E71F1000404DB4FF0E2
:100590000044404264EB0101141E73F1000405DBCA
:1005A0001C464FF00043524263EB04038B4208BFEA
:1005B000824230BD30B5041E71F1000404DB4FF0FF
:1005C0000044404264EB0101141E73F1000405DB9A
:1005D0001C464FF00043524263EB0403994208BFAC
:1005E000904230BD01F0004330B421F0004150EAA8
:1005F000010206D00A0DA2F56072C1F31301002AB0
:1006000002DC30BC00207047440F44EAC104C10042
:10061000E01830BC00EBC25000F099B800F043B9CC
:1006200030B50B46014600202022012409E021FAC2
:1006300002F59D4205D303FA02F5491B04FA02F5BF
:100640002844151EA2F10102F1DC30BD2DE9F05F56
:100650000546002092469B46884606468146402431
:100660001BE0284641464746224600F03BF95346E8
:100670005A46C01A914110D311461846224600F03E
:1006800016F82D1A67EB01084F462246012000217B
:1006900000F00DF817EB00094E41201EA4F10104F3
:1006A000DFDC484631462A464346BDE8F09F202A13
:1006B00004DB203A00FA02F1002070479140C2F1B9
:1006C000200320FA03F3194390407047202A06DBE9
:1006D000CB17203A41FA02F043EAE07306E041FA10
:1006E00002F3D040C2F120029140084319467047FE
:1006F000004870474C000020034870470248001D26
:10070000011F8860001D7047500000202DE9F04156
:100710000646FFF7EDFF8046454613E016B1E06858
:10072000B0420ED120682860D4E90101D8F80070E9
:100730008847204604F098F9D8F80000B842EBD179
:1007400000E025462C68002CE8D1BDE8F0810029A6
:10075000A8BF7047401C490008BF20F00100704747
:1007600010B4B0FA80FC00FA0CF050EA010404BFA7
:1007700010BC704749B1CCF1200421FA04F411FAFD
:100780000CF118BF012121430843A3EB0C01CB1D41
:100790004FEA00614FEA102042BF002010BC7047B2
:1007A00000EBC35010440029A4BF10BC7047401C8C
:1007B000490008BF20F0010010BC704710B5141E9E
:1007C00073F1000408DA401C41F1000192185B410A
:1007D0001A4301D120F0010010BD2DE9F04D9246E1
:1007E0009B4611B1B1FA81F202E0B0FA80F22032F8
:1007F0009046FFF75CFF04460F4640EA0A0041EAD4
:100800000B0153465A46084313D0114653EA0100E0
:1008100019D0C8F14002504600F064F805460E4673
:10082000504659464246FFF742FF084305D0012093
:1008300004E020463946BDE8F08D0020054346EA35
:10084000E0762C4337430A986305E40AA0EB0800DE
:100850000022FD0A44EA47540A3002D5002001462E
:10086000E9E7010510196941DDE908450019694109
:10087000BDE8F04DA2E7C1F30A52C1F3130140F203
:10088000FF3341F480119A4202DA0020014670479A
:1008900040F233439A42A2F2334202DC524200F069
:1008A00021B8FFF704BF10B500F031F8016919B1A4
:1008B00000220261884701E080688047AFF3008032
:1008C000064C074D06E0E06840F0010394E807009D
:1008D00098471034AC42F6D3FFF75AFCE84D0008B5
:1008E000084E0008202A04DB203A21FA02F00021F9
:1008F000704721FA02F3D040C2F120029140084330
:10090000194670477047000010B5AFF3008070B50E
:10091000FFF7F4FE04680546A4B9202004F08AF924
:10092000040011D0094900202C60C4E900010849E5
:10093000A1602073206160610649A06109B100F0E7
:100940000BF8E061204670BDAFF3008000000000AE
:10095000090900080000000010B5882004F06AF9B9
:10096000002801D00021017010BD802902D808B1F3
:10097000017809B100207047012100F8081B704779
:1009800018B100F10802914201D000207047002107
:100990000170704700BFFEE77047F0B50A460021BE
:1009A0000023002400BF3DE0012505FA01F315688E
:1009B00005EA03049C4234D105684F000326BE407B
:1009C000B543056015794E00B540066835430560AE
:1009D0001579012D02D01579022D16D185684F00A9
:1009E0000326BE40B543856055794E00B540866804
:1009F00035438560456801268E40B54345604568AE
:100A000096798E40B6B235434560C5684F000326DF
:100A1000BE40B543C560D5794E00B540C668354384
:100A2000C560491C1029BFD3F0BDF0B500230024D8
:100A30004D07ED0E02FA05F3CE1000F1200555F832
:100A400026504E07F70E0F26BE40B543CF1000F1DB
:100A5000200646F82750CE1000F1200555F8265004
:100A600045EA0304CE1000F1200545F82640F0BD0C
:100A7000418370470183704700BFFEE721B10288C0
:100A800042F48062028004E002884FF6FF331A408D
:100A90000280704770B50246002400250023002024
:100AA000958A138B1B0445EA030626F07F4404EA6B
:100AB00001068E4201D1012000E0002070BD21B16D
:100AC000028842F00102028004E002884FF6FE73C1
:100AD0001A400280704721B1028842F4807202807D
:100AE00004E002884FF6FF631A400280704721B18C
:100AF000028842F40072028004E002884FF6FF533D
:100B00001A40028070470CB5024600200023019372
:100B1000009300920B0F019321F07F41019B1BB1C9
:100B2000009B1433009303E0090C009B18330093DF
:100B3000009B1B680B400BB1012000E000200CBDA6
:100B40002DE9FF4704460D460026B1460427DFF88D
:100B5000CC80A6884FF6C0700640684600F0F8F8D2
:100B6000DDF808802E48B8FBF0F01FFA80F946EA5D
:100B70000906A68020884FF6FE71084020800026D6
:100B80002849286888420CD828684000B8FBF0F053
:100B900087B2042F00DA04273E4309F101002084C4
:100BA00027E0E8884BF6FF71884206D1286800EB01
:100BB0004000B8FBF0F087B209E0286800EBC00104
:100BC00001EB0010B8FBF0F087B247F48047C7F3A1
:100BD0000B0008B947F0010747F4004006434FF403
:100BE000967009FB00F04FF47A7190FBF1F0401C15
:100BF0002084A683208840F00100208026884FF6BC
:100C0000F5300640A8886989084306432680A889EC
:100C1000298908432081BDE8FF87000000127A007F
:100C200040420F00A086010008B502460020009057
:100C300000920098084400900098008808BD014682
:100C4000088AC0B2704712B141F0010101E001F021
:100C5000FE01018270470182704700BFFEE77047C6
:100C600070B5002100230F22C4781CB3174C2468F0
:100C700004F4E064C4F5E064C4F30721C1F10404A2
:100C8000E3B20A4144789C40E1B2847814402143A5
:100C90000C07210E0E4C05786155047804F01F05F1
:100CA0000124AC4005786D11AD0005F1E025C5F8D3
:100CB000004109E0047804F01F050124AC40054D13
:100CC0000678761145F8264070BD00000CED00E076
:100CD00000E400E080E100E002490143024A1160C3
:100CE000704700000000FA050CED00E070470000BE
:100CF00029B1064A12680243044B1A6004E0034A11
:100D000012688243014B1A6070470000303802407D
:100D100029B1064A12680243044B1A6004E0034AF0
:100D200012688243014B1A6070470000403802404D
:100D300029B1064A12680243044B1A6004E0034AD0
:100D400012688243014B1A60704700004438024029
:100D5000F0B5002100220024022500260223324F94
:100D60003F6807F00C0121B1042905D0082937D1CB
:100D700005E02E4F076036E02D4F076033E02A4F25
:100D80003F1F3F68C7F38056274F3F1F3F6807F05C
:100D90003F036EB1264FB7FBF3F7DFF88CC0ACF121
:100DA000040CDCF800C0CCF3881C07FB0CF40CE04E
:100DB0001E4FB7FBF3F7DFF870C0ACF1040CDCF8A2
:100DC00000C0CCF3881C07FB0CF4174F3F1F3F6893
:100DD000C7F301477F1C7D00B4FBF5F7076002E015
:100DE000124F076000BF00BF0F4F3F6807F0F001D0
:100DF0000909104F7A5C0768D74047600A4F3F687F
:100E000007F4E051890A0B4F7A5C4768D740876046
:100E1000054F3F6807F46041490B064F7A5C47680D
:100E2000D740C760F0BD0000083802400024F4003D
:100E300000127A00000000202DE9F04104460D4622
:100E4000164600BF0D48007808B902F089F800BFC7
:100E5000EFF311800746202080F3118800BF00BF08
:100E600032462946204600F00BF88046F8B280F35F
:100E7000118800BF00BF4046BDE8F081940000200B
:100E80002DE9F047074688461646C24607EB47015C
:100E90001B4800EBC109D9F8140020B1012811D07A
:100EA000022826D11EE0484601F00AFE0546B5425A
:100EB00001D2002405E0344632465146484600F04F
:100EC0001BFF18E0484601F0FBFD0546B54201D284
:100ED000284600E03046044622465146484600F087
:100EE0000BFF08E032465146484601F091FA0446AD
:100EF00001E0002400BF00BF2046BDE8F0870000ED
:100F0000AC0000200FB438B5044606A800906A462D
:100F10002046059901F037FC054600200090284640
:100F200038BC5DF814FB7047042808D14FF0E0216D
:100F3000096941F004014FF0E022116107E04FF030
:100F4000E021096921F004014FF0E02211617047AE
:100F50007047000010B51548006840F47000134950
:100F600008601348006840F0010011490860002043
:100F70000F49083108600E4800680E4908400C49C6
:100F800008600D48091D0860081F006820F48020D3
:100F9000091F0860002006490C31086000F00AFAB9
:100FA0004FF0006001498039086010BD88ED00E015
:100FB00000380240FFFFF6FE1030002410B501217A
:100FC0000A4800F033F801280ED10121074800F04B
:100FD0001EF803F09DFE04462068401C206000BF00
:100FE0000121024800F013F810BD0000001000407D
:100FF00021B1028842F08002028004E002884FF6AC
:101000007F731A4002807047CA4302827047CA4306
:101010000282704721B1028842F00102028004E09E
:1010200002884FF6FE731A400280704730B50246C0
:10103000002000230024158A05EA0103958905EAAA
:10104000010413B10CB1012000E0002030BD1AB141
:1010500083890B43838102E083898B4383817047BB
:101060000185828270470A46002101894FF68F73FD
:10107000194011430181704702894FF67F731A406E
:10108000028102890A430281704782884FF68F737A
:101090001A40828082880A438280704702894FF614
:1010A000F8731A40028102890A43028170470000E6
:1010B00000220288184B98420ED0184B98420BD051
:1010C000B0F1804F08D0164B984205D0154B98428E
:1010D00002D0154B984204D14FF68F731A404B88BB
:1010E0001A43124B984207D0114B984204D04FF646
:1010F000FF431A400B891A4302804B68C3620B8876
:101100000385054B984202D0044B984201D18B7A5B
:1011100003860123838270470000014000040140E0
:101120000004004000080040000C00400010004097
:10113000001400404FF0FF31416000210180018127
:1011400041808172704721B1028842F00202028020
:1011500004E002884FF6FD731A400280704721B107
:10116000028842F00402028004E002884FF6FB731A
:101170001A400280704701F40072B2F5007F00D17E
:1011800000BFCA430280704721B1828942F40052F5
:10119000828104E082894DF6FF731A408281704794
:1011A000F0B50346002400260025002040F66A170B
:1011B000B94200D100BF1846C1F3421401F01F0626
:1011C000012707FA06F5012C01D10C3004E0022CAE
:1011D00001D1103000E014301AB107682F430760C6
:1011E00002E00768AF430760F0BD00002DE9FF474C
:1011F00005460E460024A14600BFA046B08900B1B6
:1012000000BF2C8A24F44054F08804432C82AC891B
:1012100041F20C608443B0883189084371890843E6
:101220000443AC81AC8A24F44074B0890443AC829A
:101230006846FFF78DFD2048854202D01F48854251
:1012400002D1DDF80C9001E0DDF80890A88900F4E7
:10125000004040B109EBC90000EB091031684900BA
:10126000B0FBF1F707E009EBC90000EB09103168AA
:101270008900B0FBF1F76420B7FBF0F0040120090E
:10128000642101FB1078A88900F4004040B13220AD
:1012900000EBC800B0FBF1F000F00700044308E0E9
:1012A000322000EB08106421B0FBF1F000F00F00D9
:1012B00004432C81BDE8FF87001001400014014069
:1012C00000BFFEE770B504460E46A568681C61685D
:1012D000814206D320684655681CA060E068401C27
:1012E000E060D4E9011088420DD1A268216820692C
:1012F000FFF7A2FDA168884203D04FF0FF30E06005
:1013000001E00020A06070BD10B504466FF004003D
:10131000FFF70AFEE11704EB5171C1F3C701074A59
:1013200011701046007800EB4001C1EBC0104FF681
:10133000FF7101EAC0000249088010BD10000020C2
:101340001200002010B503F0F5FC044680226B214A
:1013500002F09AF94FF4FA6001F012FF03F0EAFC90
:10136000044600226B2102F08FF903F0E3FC0446EF
:101370000722192102F088F903F0DCFC044606225A
:101380001A2102F081F903F0D5FC044606221A2145
:1013900002F07AF903F0CEFC044618221B2102F079
:1013A00073F903F0C7FC044600221C2102F06CF91B
:1013B00010BD00000CB5002001900090344800687A
:1013C00040F480303249086000BF3148006800F4C2
:1013D000003000900198401C0190009818B90198C5
:1013E000B0F5A04FF1D12A48006800F4003010B1E8
:1013F0000120009001E0002000900098012846D1D3
:1014000023484030006840F0805021494031086056
:101410002048006840F440401E4908601C480830DD
:1014200000681B49083108600846006840F4004025
:1014300008600846006840F4A05008601648091F7C
:101440000860081F006840F08070091F086000BF36
:101450000F48006800F000700028F9D040F20570D5
:101460000E4908600A480830006820F00300084967
:10147000083108600846006840F00200086000BFBC
:1014800003480830006800F00C000828F8D10CBDB3
:10149000003802400070004008544007003C024001
:1014A0002DED060B9DED000ADDED030A20EE200A6E
:1014B000DDED010A9DED041A00EE810ADDED020A60
:1014C0009DED051A00EE810A06B0704710B52DEDAE
:1014D000108B98B00446B0EE40AAF0EE60AAB0EED1
:1014E00041BAF0EE61FAB0EE42DAF0EE62DAB0EE56
:1014F00043EAF0EE63EA94ED000AF0EE40BA94EDB0
:10150000010AF0EE408A94ED020AB0EE409A94EDA2
:10151000030AF0EE409AB6EE000A2BEE800A8DED3B
:10152000050AB6EE000A28EE800A8DED040AB6EE32
:10153000000A29EE000A8DED030AB6EE000A29EE34
:10154000800A8DED020AB0EE000A2BEE800AB0EEA2
:1015500040FAB0EE000A28EE800AB0EE40CAB0EEC3
:10156000000A29EE000AF0EE40CA6FEEAF0A4DEE17
:101570000D0A4DEEAD0AB0EE600A02F07AF9B0EE57
:10158000408A8FEE880AF0EE40FA8DEE080AB0EE3F
:1015900040DA8DEE880AF0EE40DA2CEE290A0FEEE2
:1015A000490A30EE6F0A8DED120A2FEE280A0CEE72
:1015B000A90A30EE4D0A8DED110AB7EE000A0CEEC5
:1015C000680A0CEEC90A30EE6D0A8DED100ACDEDF9
:1015D0000FCAB0EE000A29EE800A8DED0E0A8DEDDD
:1015E0000DFA8DED0CCA9DED0CCAB0EE000A2CEE82
:1015F000000A8DED0B0ADDED0FCAB0EE000A2CEEED
:10160000800A8DED0A0A9DED0CCA9DED110A6CEE63
:10161000000ADDED0FCA9DED120A4CEEC00ACDEDB9
:10162000090A9DED0E0ADDED120A20EE200A9DED5D
:101630000DFADDED110A0FEE200ADDED0B0A9DED2E
:10164000101A00EEC10A8DED080A9DED0E0ADDEDBF
:10165000110A20EE200A9DED0A1ADDED100A01EEB6
:10166000600A9DED0DFADDED120A0FEE600A8DEDB8
:10167000070A9DED0CCA9DED120A6CEE000ADDED25
:101680000FCA9DED110A4CEE800ACDED060ADDED84
:10169000090A60EEA00A9DED081A41EE010A9DEDCF
:1016A000071A41EE010A9DED061A41EE010AB0EE5D
:1016B000600A02F0DEF8B0EE408A18EE100AFEF77B
:1016C0004EFF9FED850B53EC102BCDE900019DEDF6
:1016D000000B51EC100BFEF76DFF17D29DED090AC0
:1016E000C0EE080ACDED090A9DED080AC0EE080A11
:1016F000CDED080A9DED070AC0EE080ACDED070AF8
:101700009DED060AC0EE080ACDED060A744890ED7C
:10171000000AF8EE080A20EE200AB4EECB0AF1EE39
:1017200010FA0ED290ED000AF0EE080A20EE200A20
:10173000B4EECB0AF1EE10FA03DD9FED6A0AB0EECB
:1017400040BA674890ED000AF8EE080A20EE200A39
:10175000B4EECA0AF1EE10FA0ED290ED000AF0EEE5
:10176000080A20EE200AB4EECA0AF1EE10FA03DDF0
:101770009FED5C0AB0EE40AA594890ED000AF8EEE1
:10178000080A20EE200AB4EEEA0AF1EE10FA0ED2B0
:1017900090ED000AF0EE080A20EE200AB4EEEA0A04
:1017A000F1EE10FA03DD9FED4F0AF0EE40AA9DED39
:1017B000040AB1EE400A20EE0A0ADDED030A00EE4B
:1017C000EA0ADDED020A00EECB0A8DED160A9DED68
:1017D000050A20EE0A0ADDED030A00EE8B0ADDEDB4
:1017E000020A00EEEA0A8DED150A9DED050A20EECB
:1017F0002A0ADDED040A00EECB0ADDED020A00EE56
:101800008A0A8DED140A9DED050A20EE0B0ADDED26
:10181000040A00EEAA0ADDED030A00EECA0A8DED05
:10182000130A9DED160ADDED090A0EEEE00AF0EE50
:101830006B0A40EE0E0AF0EE60BA9DED150ADDED82
:10184000080A0EEEE00AF0EE680A40EE0E0AF0EE2C
:10185000608A9DED140ADDED070A0EEEE00AF0EE57
:10186000490A40EE0E0AB0EE609A9DED130ADDEDD6
:10187000060A0EEEE00AF0EE690A40EE0E0AF0EEFD
:10188000609A6BEEAB0A48EEA80A49EE090A49EEE7
:10189000A90AB0EE600A01F09BFBB0EE408A2BEE85
:1018A000880AF0EE40BA28EE880AF0EE408A29EE67
:1018B000080AB0EE409A29EE880AF0EE409AC4ED8C
:1018C00000BAC4ED018A84ED029AC4ED039A18B0FF
:1018D000BDEC108B10BD0000BC89D897B2D29C3CE7
:1018E000280000200000000011B52DED040B2DEDA7
:1018F000048B89B00446DDED101A9DED0F1ADDED65
:101900000E0A9DED0D0A684600F076FE04EB4400D9
:10191000694601EB800090ED000AF0EE408A04EB8E
:101920004400401C01EB800090ED000AB0EE408ABC
:1019300004EB4400801C01EB800090ED000AB0EE47
:10194000409A68EEA80A48EE080AB0EE600A01F074
:1019500090FFF0EE409AF0EE490A01F096FF09B0D0
:10196000BDEC048B05B010BD31B52DED040B2DED94
:10197000068BB0EE618A044618EE100AFEF7EFFD02
:1019800041EC1A0B9FED180B53EC102BFEF706FDE4
:1019900041EC190BFEF726FE08EE100AB0EE489A4D
:1019A000B0EE490A02F07EF984ED000AB0EE489AE2
:1019B000B0EE490A02F01EFAF0EE408A9DED060AEA
:1019C00020EE280A84ED010A9DED070A20EE280A80
:1019D00084ED020A9DED080A20EE280A84ED030A30
:1019E000BDEC068B05B030BD000000000000E03FFC
:1019F00077B52DED040B2DED0C8B85B006460D460D
:101A000014469DED110ADDED120A20EE200ADDEDEF
:101A1000130A9DED141A00EE810A10EE101A084602
:101A2000FEF79DFD41EC1C0B9FED720B53EC102B50
:101A3000FEF7B4FC41EC1B0BFEF7D4FD09EE900A57
:101A40009DED120A20EE000ADDED130A9DED131A3A
:101A500000EE810A10EE101A0846FEF780FD41ECF8
:101A60001D0B9FED640B53EC102BFEF797FC41EC24
:101A70001C0B9FED620B53EC102BFEF78CFC41EC22
:101A80001B0BFEF7AFFD0AEE100AF0EE4A0AB0EEAD
:101A9000690A01F0FAFE86ED000A9DED110ADDEDFE
:101AA000130A20EE200ADDED140A9DED121A00EE55
:101AB000C10A10EE101A0846FEF751FD41EC1C0B4E
:101AC0009FED4C0B53EC102BFEF768FC41EC1B0B0D
:101AD000FEF788FD08EE100AB0EE480A01F0C4FED9
:101AE000F7EE000AB4EEE00AF1EE10FA1ADB9FED11
:101AF000450B8DED000B18EE100AFEF730FDCDE919
:101B000002010199039861F31E0001909DED000B05
:101B1000B0EE40BAF0EE60BA51EC1B0BFEF762FD7E
:101B2000286006E000BFB0EE480A01F0FDFE85ED3A
:101B3000000A9DED110ADDED140A20EE200ADDED0C
:101B4000120A9DED131A00EE810A10EE101A0846D3
:101B5000FEF705FD41EC1C0B9FED260B53EC102B03
:101B6000FEF71CFC41EC1B0BFEF73CFD08EE900A57
:101B70009DED130A20EE000ADDED140A9DED141A06
:101B800000EE810A10EE101A0846FEF7E8FC41EC60
:101B90001D0B9FED180B53EC102BFEF7FFFB41ECD8
:101BA0001C0B9FED160B53EC102BFEF7F4FB41ECD6
:101BB0001B0BFEF717FD09EE100AF0EE490AB0EE16
:101BC000680A01F062FE84ED000A94ED000AB5EEA9
:101BD000C00AF1EE10FA07D294ED000ADFED0B0A0D
:101BE00030EE200A84ED000A05B0BDEC0C8B07B086
:101BF00070BD000000000000000000400000000078
:101C00000000F03F00000060FB21F93FDB0FC940FE
:101C100000B50246D2ED022A92ED012AD2ED001A59
:101C200092ED021AD2ED010A92ED000AFFF738FC9C
:101C3000F0EE403A01F0CCF9B0EE403A92ED000AF5
:101C400020EE030A82ED000A92ED010A20EE030A5B
:101C500082ED010A92ED020A20EE030A82ED020AE9
:101C600000BD00003EB505463B2001F061F900B221
:101C7000ADF800003D2001F05BF900B2ADF80200C4
:101C80003F2001F055F900B2ADF80400432001F007
:101C90004FF900B2ADF80600452001F049F900B255
:101CA000ADF80800472001F043F900B2ADF80A0092
:101CB00000241CE0032C0ADA3DF9140000EE100A9F
:101CC000B8EEC00A05EB840080ED000A0EE03DF995
:101CD000140000EE100AB8EEC00A0648D0ED000A63
:101CE00080EE201A05EB840080ED001A641C062C9F
:101CF000E0DB3EBD240000202DE9F0470446894684
:101D00001546E668A068871BAF4208D96168881944
:101D10002A464946FEF758FA7019E06010E0B846C6
:101D20006168881942464946FEF74EFAA5EB070856
:101D300009EB070142466068FEF746FAC4F80C80DA
:101D4000BDE8F08700B52DED0A8B8FB09FED970AA7
:101D5000B0EE408A9FED950AF0EE408A9FED930A1F
:101D6000B0EE409A4FF4C871914800F0FDF9F0EEE2
:101D7000409A4FF4C8718F4800F0F6F9B0EE40AACF
:101D80004FF4C8718C4800F0EFF9F0EE40AA4FF420
:101D9000C8718A4800F0E8F9B0EE40BA4FF4C87153
:101DA000874800F0E1F9F0EE40BA4FF4C871854879
:101DB00000F0DAF9B0EE40CA834890ED000AF1EE87
:101DC000040A20EE200AB4EEE90AF1EE10FA15D367
:101DD00090ED000AF1EE040A20EE200AB4EECA0AE1
:101DE000F1EE10FA0AD390ED000AF1EE040A20EEAB
:101DF000200AB4EEEA0AF1EE10FA06D20020734986
:101E000008800FB0BDEC0A8B00BD9FED710AB4EEE7
:101E1000C0BAF1EE10FA0DDC9FED6D0AF4EEC0BA17
:101E2000F1EE10FA06DC9FED6A0AB4EEC0CAF1EEDC
:101E300010FA00DDE5E700200C900D900E9065484B
:101E400090ED000A8DED0E0A002009900A900B908B
:101E5000614A92E80B00D268CDE90732CDE905016D
:101E60005E4B0FCBCDE90323CDE9010105A8DDEDE4
:101E7000041A9DED031ADDED020A9DED010A00F042
:101E800067FC09A89DED083ADDED072A9DED062ABD
:101E9000DDED051A9DED0E1ADDED0D0A9DED0C0A26
:101EA00000F01CFE9DED090A4D48D0ED000A70EED1
:101EB000C00A9FED4C1A80EE810A4348D0ED000A1B
:101EC00080EE201AB0EE418A9DED0A0A4648D0ED18
:101ED000000A70EEC00A9FED431A80EE810A3A486C
:101EE000D0ED000A80EE201AF0EE418A9DED0B0A3B
:101EF0003E48D0ED000A70EEC00A9FED3A1A80EE1F
:101F0000810A3148D0ED000A80EE201AB0EE419AE5
:101F10002E48B0F900100088401C00B22B4A1080F7
:101F2000022941DD002011460880B0EE480A01F088
:101F30009BFCF2EE040AB4EEE00AF1EE10FA33D2A2
:101F4000B0EE680A01F090FCF2EE040AB4EEE00A8A
:101F5000F1EE10FA28D2B0EE490A01F085FCF2EE5B
:101F6000040AB4EEE00AF1EE10FA1DD2204801880E
:101F7000BDEEC80A10EE100A084400B21C490880E1
:101F80001C480188BDEEE80A10EE100A084400B2B1
:101F90001849088018480188BDEEC90A10EE100AD9
:101FA000084400B21449088000BF2AE7000000007E
:101FB0006C050020AC0B0020EC1100202C18002038
:101FC0006C1E0020AC2400202800002042000020CD
:101FD0000000C84238000020AC4D00085C0500201D
:101FE0002C0000200000C8433000002034000020F6
:101FF0001C0000201E0000202000002010B52DED48
:10200000068BB0EE408AF0EE608AB0EE419AF0EEB8
:10201000619AB0EE42AAF0EE62AA9FED470A4748E5
:1020200080ED000A9FED440A454880ED000A9FEDCF
:10203000420A444880ED000A9FED3F0A424880ED85
:10204000000A0020414908800846B0F90000B0F5B8
:10205000C87F4ADA3E48B1F9001000EB810080EDFC
:10206000008A3C483949B1F9001000EB8100C0ED0D
:10207000008A39483549B1F9001000EB810080ED44
:10208000009A36483149B1F9001000EB8100C0EDEB
:10209000009A33482D49B1F9001000EB810080ED22
:1020A00000AA30482949B1F9001000EB8100C0EDC9
:1020B00000AA224890ED000A30EE080A80ED000ADE
:1020C0001F4890ED000A30EE280A80ED000A1D48F6
:1020D00090ED000A30EE090A80ED000A1B480088E6
:1020E000401C00B21949088022E01848B0F90000ED
:1020F000B0F5C87F19D1FFF725FE002013490880ED
:102100009FED0D0A0D4880ED000A9FED0B0A0C486B
:1021100080ED000A9FED080A0A4880ED000A9FED55
:10212000060A094880ED000A02E0002007490880FD
:10213000BDEC068B10BD0000000000002C0000204C
:102140003000002034000020380000204000002033
:102150006C050020AC0B0020EC1100202C18002096
:102160006C1E0020AC2400200A46002190ED000ADD
:10217000F0EE400A90ED000AB0EE401A012120E096
:1021800000EB810393ED000AB4EEE00AF1EE10FAE1
:1021900006DD00EB810393ED000AF0EE400A0EE04D
:1021A00000EB810393ED000AB4EEC10AF1EE10FAE0
:1021B00005D200EB810393ED000AB0EE401A4B1CF0
:1021C00099B29142DCDB30EEC10A70472DED080B6D
:1021D0009DED000ADDED040A20EE200ADDED010A86
:1021E0009DED051A00EE810ADDED020A9DED061A4D
:1021F00000EE810ADDED030A9DED071A00EE810A6B
:1022000008B0704701B52DED060B9DED010ADDED1F
:10221000050A20EE200ADDED020A9DED041A00EE0B
:10222000C10A80ED000A9DED020ADDED030A20EEF1
:10223000200ADDED000A9DED051A00EEC10A80EDD1
:10224000010A9DED000ADDED040A20EE200ADDED15
:10225000010A9DED031A00EEC10A80ED020A07B0E3
:1022600000BD00000EB501210620FEF751FD6846B5
:10227000FEF760FF4FF6FF7001900020ADF8000000
:10228000ADF80800ADF8020069462448FEF710FFDB
:10229000002211462148FEF7E3FE01211F48FEF708
:1022A00052FF20211D48FEF7DEFE07211B48FEF7E6
:1022B000F5FE80211948FEF7DFFE01211748FEF7E1
:1022C00097FE4FF6FF7001904820ADF80000002007
:1022D000ADF80800ADF8020069461148FEF7E8FEC7
:1022E00001210F48FEF784FE04210D48FEF7D6FEBB
:1022F00001210B48FEF733FF20210948FEF7C5FEF8
:1023000080210748FEF7B8FE01210548FEF782FE4E
:1023100001210248FEF77EFE0EBD000000080040CD
:10232000000400402DE9FC5F8046894615461E46A4
:102330000C9CCDF804900127BB4605E00198B0FB4A
:10234000F5F001900BF1010B0198A842F6D25E4521
:1023500000D9B3460D9800F00100D0B9CCB10D986A
:1023600000F00200022803D116B93020009001E0ED
:102370002020009009E0641E40460099FEF7A2FF6D
:10238000D8F80C00002800DA02E00CB1A345F2D323
:1023900000BFD8F80C00002835DB09E0012E01D978
:1023A000761E04E0B9FBF7FAAA4500D201E06F43BC
:1023B000F4E700BF00BFB9FBF7FA0AFB179913480F
:1023C00010F80A104046FEF77DFFD8F80C000028F0
:1023D00000DA03E0B7FBF5F7002FECD100BF0D9852
:1023E00000F0010078B174B109E0641E202140467C
:1023F000FEF768FFD8F80C00002800DA02E00CB104
:10240000A345F2D300BFBDE8FC9F0000844D000847
:102410002DE9F0470446894617464FF0000AE56863
:1024200000BFD4F81080A84503D9A8EB0500461ECC
:1024300004E0A5EB0800401CA1680E1AA068401B30
:10244000B04201D9304601E0A068401B0646BE42BA
:1024500001D2304600E038460646616848193246E7
:102460004946FDF7B1FEB244B144BF1B3544A068F4
:10247000A84200D10025E560002FD2D15046BDE82A
:10248000F08710B52DED040B2DED028BDDED042A48
:102490009DED032ADDED021A9DED041ADDED030A20
:1024A0009DED020AFEF7FCFFB0EE408A01F0E1F973
:1024B000BDEC028B1FBD01B52DED080B9DED000A93
:1024C000DDED040A20EE200ADDED010A9DED051A7E
:1024D00000EEC10ADDED020A9DED061A00EEC10A0A
:1024E000DDED030A9DED071A00EEC10A80ED000A3A
:1024F0009DED000ADDED050A20EE200ADDED010A62
:102500009DED041A00EE810ADDED020A9DED071A29
:1025100000EE810ADDED030A9DED061A00EEC10A08
:1025200080ED010A9DED000ADDED060A20EE200A8D
:10253000DDED020A9DED041A00EE810ADDED030ACD
:102540009DED051A00EE810ADDED010A9DED071AE9
:1025500000EEC10A80ED020A9DED000ADDED070ADA
:1025600020EE200ADDED030A9DED041A00EE810A3B
:10257000DDED010A9DED061A00EE810ADDED020A8D
:102580009DED051A00EEC10A80ED030A09B000BDF9
:1025900000B50246D2ED033A92ED023AD2ED012A9D
:1025A00092ED002AD2ED031A92ED021AD2ED010A41
:1025B00092ED000AFFF70AFEF0EE404A00F008FD37
:1025C000B0EE404A92ED000A20EE040A82ED000AC5
:1025D00092ED010A20EE040A82ED010A92ED020A50
:1025E00020EE040A82ED020A92ED030A20EE040AAC
:1025F00082ED030A00BD000011B52DED040B2DED99
:10260000108B87B00446B0EE000AF0EE408A9DEDD4
:10261000180A20EE280AF0EE409A9DED190A20EEE5
:10262000280AB0EE409A9DED1A0A20EE280AB0EE74
:10263000408A9DED170A20EE290AB0EE40AA9DEDD2
:10264000170A20EE090AF0EE40AA9DED170A20EEC7
:10265000080AB0EE40BA9DED180A20EE290AF0EE05
:1026600040BA9DED180A20EE090AB0EE40DA9DED61
:10267000180A20EE080AF0EE40DA9DED190A20EE65
:10268000090AB0EE40EA9DED190A20EE080AF0EEC4
:1026900040EA9DED190A20EE080AB0EE40FA1FEE5E
:1026A000100AFDF75CFFCDE902011EEE100AFDF7EE
:1026B00056FF41EC1C0B9FED240B53EC102BFDF748
:1026C0006AFECDE900019DED020B53EC102B9DED50
:1026D000000B51EC100BFDF75BFECDE904019DED05
:1026E000040B51EC100BFDF77DFF20603DEE0B0A53
:1026F00084ED010A3DEEEA0A84ED020A3DEE4B0A42
:1027000084ED030AB7EE000A30EE6B0A30EE4F0A92
:1027100084ED040A3EEE8A0A84ED050A3DEEAA0A1B
:1027200084ED060A3EEECA0A84ED070AB7EE000AF7
:1027300030EE6B0A30EE4E0A84ED080A07B0BDECAD
:10274000108B05B010BD0000000000000000F03F3D
:1027500001B52DED040B9DED000A80ED000A9DED05
:10276000010AB1EE400A80ED010A9DED020AB1EEC8
:10277000400A80ED020A9DED030AB1EE400A80EDA9
:10278000030A05B000BD2DE9F04F99B082460D4611
:10279000144603A814904020159000201690CDF800
:1027A00060A0179000BF2E786D1C06B9DDE0252EC5
:1027B00079D100274FF0010900BF2E78232E12D0C7
:1027C0002B2E0CD02D2E02D0302E10D103E047F04E
:1027D00001076D1C0EE047F002076D1C0AE047F090
:1027E00004076D1C06E047F008076D1C02E04FF07F
:1027F000000900BF00BFB9F1000FDED14FF00008A3
:1028000000BF2E78302E01DB392E00DD07E06D1C75
:10281000A6F1300008EB880100EB4108F1E700BFAA
:10282000002013902E782E2E12D16D1C00BF2E7812
:10283000302E01DB392E00DD09E06D1CA6F13000E1
:10284000139901EB810100EB41001390EFE700BF0A
:102850002E7800BF6C2E01D0682E02D16D1C2E7810
:1028600000E000E0F6E700BF702E5DD008DC252E0A
:102870006AD0582E35D0632E09D0642E69D113E06A
:10288000732E3CD0752E1DD0782E62D128E02168A1
:10289000081D2060D1F8009009F0FF0B594614A8DC
:1028A000FEF710FD56E058E02168081D2060D1F8C1
:1028B0000090CDE900870A22494614A8139B00F036
:1028C000BFFC47E02168081D2060D1F80090CDE9E9
:1028D00000870A22494614A8139BFFF723FD39E01D
:1028E00000BF2168081D2060D1F80090CDE9008765
:1028F0001022494614A8139BFFF714FD2AE0216813
:10290000081D2060D1F800B000BF9BF800600BF1FB
:10291000010B06B906E0314614A8FEF7D3FC179860
:102920000028F2DA00BF15E02168081D2060D1F808
:102930000090002008210B461022CDE900104946E6
:1029400014A8FFF7EFFC05E0252114A8FEF7BAFC58
:1029500000E000BF00BF6D1C03E0314614A8FEF785
:10296000B1FC17980028BFF61EAF00BF17980028CB
:102970000ADD169820B103A95046169AFEF75CFAB4
:10298000DDE9161008441790179819B0BDE8F08FCC
:1029900030B52DED068B91B00446434BD3E90102CF
:1029A0001968DB680EAD0DC50D910DA800F02EFB6A
:1029B0003D480DA92EC92EC03C4B0FCB01AD0FC514
:1029C00005A8DDED041A9DED031ADDED020A9DED6B
:1029D000010AFFF7BDFE09A8DDED083A9DED073AB3
:1029E000DDED062A9DED052ADDED101A9DED0F1A8D
:1029F000DDED0E0A9DED0D0AFFF75DFD2246211D5E
:102A0000081DDDED0C1A9DED0B1ADDED0A0A9DED9A
:102A1000090AFEF7EDFFDDED0C1A9DED0B1ADDED59
:102A20000A0A9DED090A0220FEF75EFF10EE105A19
:102A30002846FDF794FD41EC1A0B9FED1D0B53EC5E
:102A4000102BFDF7ABFC41EC190B9FED1B0B53EC6E
:102A5000102BFDF715FD41EC180BFDF7C3FDA06031
:102A600094ED000A10EE101A0846FDF778FD41ECCF
:102A70001A0B9FED0F0B53EC102BFDF78FFC41EC65
:102A8000190B9FED0D0B53EC102BFDF7F9FC41ECEE
:102A9000180BFDF7A7FD206094ED020A84ED010AF2
:102AA00011B0BDEC068B30BD4C0500205C0500204C
:102AB000000000000080664000000060FB2109402B
:102AC00010B501460A69CB689A4204D88C68641E26
:102AD000E41AA01801E0D41A601E10BD01B52DED56
:102AE000080B90B0014600200C900D900E900F90B6
:102AF0009DED100A8DED0D0A9DED110A8DED0E0A6A
:102B00009DED120A8DED0F0A08A8DDED161A9DED58
:102B1000151ADDED140A9DED130AFFF719FE04A83E
:102B2000DDED0F3A9DED0E3ADDED0D2A9DED0C2AFF
:102B3000DDED161A9DED151ADDED140A9DED130A53
:102B4000FFF7B9FC6846DDED0B3A9DED0A3ADDED85
:102B5000092A9DED082ADDED071A9DED061ADDED27
:102B6000050A9DED040AFFF7A6FC9DED010A81ED23
:102B7000000A9DED020A81ED010A9DED030A81ED37
:102B8000020A19B000BD000031B52DED060B2DED88
:102B9000048B8AB00446DDED132A9DED122ADDED8B
:102BA000111A9DED101ADDED0F0A9DED0E0AFEF7CC
:102BB00077FCB0EE408A5349D1E900208968CDE91D
:102BC000072009914F4A0C32D2E900109268CDE9F2
:102BD0000502049118EE100AFDF7C1FC41EC190B37
:102BE0009FED490B53EC102BFDF7CCFC42D201A812
:102BF000DDED102A9DED0F2ADDED0E1A9DED091A6F
:102C0000DDED080A9DED070AFFF7FCFA9DED031ABA
:102C1000DDED020A9DED010AFFF733FC10EE105ABC
:102C20002846FDF79CFC41EC190B9FED390B53EC4A
:102C3000102BFDF7A7FC0ED201A8DDED102A9DEDAB
:102C40000F2ADDED0E1A9DED061ADDED050A9DED4C
:102C5000040AFFF7D7FA01A8FEF7DAFF2046DFEDF6
:102C60002E1A9DED031ADDED020A9DED010AFEF715
:102C70007BFE3EE018EE100AFDF771FC41EC190BEB
:102C80009FED260B53EC102BFDF794FC10D2B7EE02
:102C9000000A84ED000A9FED230A84ED010A9FEDEE
:102CA000210A84ED020A9FED1F0A84ED030A20E049
:102CB00001A8DDED132A9DED122ADDED111A9DED1F
:102CC000101ADDED0F0A9DED0E0AFFF79BFAB7EE25
:102CD000000A38EE000A84ED000A9DED010A84ED39
:102CE000010A9DED020A84ED020A9DED030A84EDBE
:102CF000030A2046FFF74CFC0AB0BDEC048B07B07A
:102D000030BD0000944D0008E90B21E7FDFFEFBF47
:102D10008DEDB5A0F7C6B03EDB0F4940E90B21E7CA
:102D2000FDFFEF3F0000000030B52DED0A8B8DB0A8
:102D30009FED710AB0EE408A9FED6F0AF0EE408A77
:102D40009FED6D0AB0EE409A9FED6B0AF0EE409A4F
:102D50009FED690AB0EE40AA9FED670AF0EE40AA27
:102D6000002464E0642000F027FA3B2000F0E0F843
:102D700000B2ADF828003D2000F0DAF800B2ADF85E
:102D80002A003F2000F0D4F800B2ADF82C00432018
:102D900000F0CEF800B2ADF82E00452000F0C8F8E3
:102DA00000B2ADF83000472000F0C2F800B2ADF834
:102DB0003200BDF92E0000EE100AB8EEC00A30EE67
:102DC000080AB0EE408ABDF9300000EE100AB8EEF5
:102DD000C00A30EE280AF0EE408ABDF9320000EE5B
:102DE000100AB8EEC00A30EE090AB0EE409ABDF9FA
:102DF000280000EE100AB8EEC00A30EE290AF0EE04
:102E0000409ABDF92A0000EE100AB8EEC00A30EE72
:102E10000A0AB0EE40AABDF92C0000EE100AB8EE86
:102E2000C00A30EE2A0AF0EE40AA601CC4B2C82CD8
:102E300098DBBDEEC80A10EE100A00B2C82190FB64
:102E4000F1F02E490988084400B22C490880BDEEF3
:102E5000E80A10EE100A00B2C82190FBF1F02849F0
:102E60000988084400B226490880BDEEC90A10EE60
:102E7000100A00B2C82190FBF1F0224909880844E9
:102E800000B2204908809FED200AC9EE80BA9FED6C
:102E90001E0A8AEE00CA9FED1C0A8AEE80BA1B4AFF
:102EA00007CA07AB07C3CDED04BA8DED05CA8DED9A
:102EB00006BA04A8FEF7ACFE6846DDED092A9DEDD2
:102EC000082ADDED071A9DED061ADDED050A9DEDD8
:102ED000040AFFF759FE0E489DE82E002EC00D484B
:102EE0000B4DD5E901322968ED68C0E902250AC019
:102EF0000DB0BDEC0A8B30BD000000001C000020AE
:102F00001E0000202000002000004843BC4D0008A7
:102F10005C0500204C0500200020034908680004DF
:102F2000024909680844704724080040240400400E
:102F30002DE9F041044601F0FDFE0746214600F070
:102F400095FB054601F0F6FE0746601CC1B2384607
:102F500000F08CFB064606EB0520BDE8F081000082
:102F600010B5124C03202061606111A0A0611349CB
:102F7000E1614FF4806121620021A1626162E1623E
:102F80000BA020660E4961661021A1660021216711
:102F9000E16661670BA1E01DFDF728F90AA1204653
:102FA000FDF724F92020A07110BD0000940000203E
:102FB0005465726D696E616C000000003C01002078
:102FC0003C050020525454005345474745520000E9
:102FD000F0EE400AF6EE001A60EEA11AB0EE611AA9
:102FE000B0EE600A10EE100A0749A1EB600000EE97
:102FF000100A21EE002AF7EE081A42EE401A61EE9E
:10300000801AB0EE610A7047DF59375F10B52DEDB9
:10301000088B8AB0044601A8FEF724FE9DED040A41
:10302000DFED390A20EE200AF0EE408A9DED050A18
:10303000DFED350A20EE200AB0EE409A9DED060A3B
:10304000DFED310A20EE200AF0EE409A9DED010AF4
:10305000B0EE40AA9DED020AF0EE40AA9DED030AF3
:10306000B0EE40BAF0EE4B2AB0EE6A2AF0EE4A1A01
:10307000B0EE691AF0EE490AB0EE680AFEF7BEFF3C
:10308000FFF74AFF2149086008460068204909689F
:10309000884210D21E4800684FF6FF71081A1B497B
:1030A0000968084400EE100AB8EE400ADFED190A7C
:1030B00080EE208A0CE01548006815490968401A1E
:1030C00000EE100AB8EE400ADFED120A80EE208A08
:1030D0000E4800680E490860DFED0F3AB0EE483A3E
:1030E000F0EE4B2AB0EE6A2AF0EE4A1AB0EE691AF8
:1030F000F0EE490AB0EE680A2046FEF7E7F90AB09A
:10310000BDEC088B10BD000035FA8E3C1800002085
:103110001400002000247449CDCC4C3D10B5FEF7BE
:1031200011F9322000F02CF8FEF70CF9FFF79AF8AD
:10313000B7EE000A0D4880ED000A9FED0D0A80ED04
:10314000010A9FED0B0A80ED020A9FED090A80ED4E
:10315000030A0848054C1ECC1EC0FFF7DDFE0649D9
:103160000860FFF7D9FE0549086010BD4C05002036
:10317000000000005C050020140000201800002062
:1031800070B504464FF4077094FBF0F0C6B24FF4EC
:10319000077094FBF0F100FB114085B205E04FF49D
:1031A000077000F0C3F8701EC6B2002EF7D115B13B
:1031B000284600F0BBF870BD0146114A12784A4318
:1031C0004FF0E0235A6100229A611A46126942F0D8
:1031D00001021A6100BF4FF0E022106900F0010205
:1031E0001AB100F48032002AF5D04FF0E0221269C3
:1031F00022F001024FF0E0231A6100229A61704729
:10320000100000201CB501210846FDF771FD0120CA
:103210008DF8040000208DF80600C02000900020EA
:103220008DF8070002208DF8050069460348FDF778
:10323000B4FBC0210148FDF71DFC1CBD000002408D
:103240002DE9FC5F06460F4692469846DDE90C459F
:10325000002F01DA784200E0384683464FF001093A
:1032600003E09BFBFAFB09F10109D345F9DAC845F4
:1032700000D9C14634B1002F03DB05F00400042857
:1032800000D1641E05F0020010B1B8F1000F11D09A
:1032900005F0010070B96CB108E0641E20213046D1
:1032A000FEF710F8F068002800DA02E00CB1A14542
:1032B000F3D300BFF068002836DB002F05DA7F4229
:1032C0002D213046FDF7FEFF07E005F0040004283D
:1032D00003D12B213046FDF7F5FFF068002823DBF2
:1032E00005F00200022814D105F0010088B9B8F1F8
:1032F000000F0ED16CB108E0641E30213046FDF79E
:10330000E1FFF068002800DA02E00CB1A145F3D338
:1033100000BFF068002807DB434652463946304676
:10332000CDE90045FEF7FEFFBDE8FC9F0146114ACE
:1033300012884A434FF0E0235A6100229A611A46EC
:10334000126942F001021A6100BF4FF0E0221069D9
:1033500000F001021AB100F48032002AF5D04FF0DB
:10336000E022126922F001024FF0E0231A610022EC
:103370009A6170471200002010B588B00446012100
:103380000846FDF7B5FC01211020FDF7D1FC07220E
:1033900009212448FDF749FB07220A212148FDF7AE
:1033A00044FB4FF4C060069002208DF81C008DF89D
:1033B0001D0000208DF81E0001208DF81F0006A9B9
:1033C0001848FDF7EAFA02940020ADF80C00ADF8B9
:1033D0000E00ADF81000ADF814000C20ADF812008E
:1033E00002A91148FDF702FF01210F48FDF7CCFEAD
:1033F00040210D48FDF7BFFE012240F225510A4849
:10340000FDF7CEFE25208DF8040003208DF8050081
:103410008DF8060001208DF8070001A8FDF720FCBB
:1034200008B010BD000002400010014001460868CD
:10343000704700001FB5044601211020FDF768FC0D
:103440000920029042F2CF00ADF8040000208DF870
:103450000E0001A91248FDF72BFE01211048FDF7CF
:10346000D3FD012211460E48FDF7F1FD4FF4E06057
:10347000FDF732FC36208DF8000000208DF80100A9
:1034800003208DF8020001208DF803006846FDF747
:10349000E7FB01210248FDF7BDFD204604B010BD49
:1034A0000010004070B504460D46207C38B1002065
:1034B000207401F02DFC0646FFF7B8FF606001F0B4
:1034C00027FC0646FFF7B2FF6168401AA84202D304
:1034D0000120207470BD0020FCE7002101604160E4
:1034E0007047704710B5044601210220FDF700FC2B
:1034F00001214020FDF7FCFB208C618C08436061BA
:10350000012121760021A1760221617604F11401C6
:10351000E069FDF742FA618CE069FDF7ABFA218CB6
:10352000E069FDF7A7FA022121760121A176208C1E
:10353000618C084360610021E176022161760422FA
:103540000821E069FDF771FA04220721E069FDF71F
:103550006CFA04F11401E069FDF71FFA0121480536
:10356000FDF7D6FB606A2060208DA080608DE08032
:10357000A08D20814FF4806060810001A081012135
:103580000348FDF79CFA21460148FDF7D9FA10BD22
:10359000005400402DE9FC478046894614461E46EB
:1035A000002750254FF4FA70019001204FF4FA7370
:1035B000002241040090404600F076F8012129489D
:1035C000FDF789FA02206423012227490090404632
:1035D00000F06AF8002249462248FDF734FB032038
:1035E000642301222049491C0090404600F05CF809
:1035F0000420642301221C497F310090404600F0E2
:1036000053F814211748FDF70FFB18211548FDF753
:103610000BFB13E021781348FDF71DFB0520642305
:10362000012211497F310090404600F03DF8781C9E
:1036300087B2641C6D1E002D00DA0025B74201DA46
:10364000002DE7D10620642301220749C91C009000
:10365000404600F029F801210248FDF748FA002011
:10366000BDE8FC8700540040010000107CB5054611
:103670000C46012001AB2246D0210090284600F0E4
:103680006FF89DF804007CBDF8B506460C4615465B
:103690008DF800408DF8015002236A46D021304653
:1036A000FFF778FFF8BD00002DE9F0470746884690
:1036B00015461E46DDF8209034460EE0601E044696
:1036C000002C01DA002004463CB909F0FF0138461D
:1036D00000F030F80120BDE8F0872CB141460348E6
:1036E000FDF711FAA842E9D100BFF4E70054004009
:1036F0002DE9F0410746884615461E462C460DE04A
:10370000601E0446002C01DA0020044634B9F1B2F0
:10371000384600F00FF80120BDE8F0812CB1414699
:103720000348FDF7B7F90028EAD000BFF4E700002E
:103730000054004070B505460C46224602A1002008
:10374000FDF7E0FB012070BD0D0A204661696C6544
:103750006420636F64653A2564200D0A0000000050
:103760002DE9FC478046894617461C460A9D4FF4C2
:10377000FA76304601900720334600224FF400319C
:1037800000904046FFF790FF01213448FDF7A3F970
:103790000823324632494046FFF7AAFF0022494635
:1037A0002E48FDF750FA092332462E494046FFF7CE
:1037B0009FFF01212948FDF782F939462748FDF787
:1037C0004AFA0A2332462749891C4046FFF790FFF0
:1037D00001212248FDF77FF90B233246204940465C
:1037E000FFF786FF012249461C48FDF72CFA0C23FF
:1037F00032461B49491C4046FFF77AFF1BE0012D6A
:1038000007D100211548FDF739F901211348FDF7CB
:103810006EF913493F311148FDF73CF938B10F48B3
:10382000FDF70DFA2070641C681E85B203E0761E59
:10383000002E00DA00260DB1002EE0D11421074839
:10384000FDF7F2F918210548FDF7EEF901210348CB
:10385000FDF714F90020BDE8FC870000005400408B
:103860000100030082000700F0EE400AB0EEE00A1B
:10387000704710B52DED028BB0EE408AB0EE480ACD
:1038800000F080FBBDEC028B10BD10B52DED028B5E
:10389000B0EE408AF0EE608AF0EE680AB0EE480AB8
:1038A00000F0D8F8BDEC028B10BD000010B504008C
:1038B00007D1012405E0FCF71FFF006800B90448A8
:1038C0008047204601F0B6F90028F4D010BD000072
:1038D0001D0600087CB5044600201D46164600293A
:1038E0000BD0491ECDE90041044B6A4629463046BB
:1038F00000F018FD009A002111707CBD534A0008A9
:103900004100080218BF04200A0E18BF40F0010051
:103910004FF07F4232EA010108BF40F00200012867
:1039200008BF05207047000010B54FF00E402DED88
:10393000028BB0EE408A18EE104A00EB4400B0F162
:10394000506F4AD84FF0FC40B0EB440F22D2B0EE9B
:10395000C80AF7EE000A30EEC00AF6EE000A60EE82
:10396000208A18EE900A01F0B3F901EE100A14F063
:10397000004F1DBFDFED2D0A9FED2D0AB1EE411A5C
:10398000DFED2C0A08BF9FED2C0AF8EE001A21EE9D
:10399000218A05E0DFED290A68EE088AB0EE600AA8
:1039A0009FED271ADFED271A30EE080A48EE811A3C
:1039B0009FED251A08EEA11ADFED241A48EE811AB0
:1039C0009FED231A08EEA11A68EE281ABDEC028BAF
:1039D00001EE810A30EE200A10BD4FF0E440B0EB5A
:1039E000440F0CD918EE100AFFF78AFF042808BF0D
:1039F00000F0F4FAB0EE480ABDEC028B10BD4FF0B7
:103A00007F40B0EB440F07D2B0EE480ABDEC028B0A
:103A1000BDE8104000F0D3BA012000F0A1FBBDECDE
:103A2000028BBDE8104000F0D1BA00000000C9BF11
:103A300022AAFDB90000C93F22AAFD3900000000FA
:103A400024FE1C3DC78AD83C1E67383D1B93993D18
:103A5000AFAA2A3E10EE100A10B510EE901A4FF0E1
:103A6000684202EB40032DED028BB3F1654F3CBF82
:103A700002EB4102B2F1654F7CD200BFC0F3C753E5
:103A8000C1F3C7529A1A1B2A09DD10F0004F14BF68
:103A90009FED6E0A9FED6E0ABDEC028B10BD12F118
:103AA0001A0F1BDA11F0004F09D010F0004F0CBFB5
:103AB0009FED680A9FED680ABDEC028B10BD80EE99
:103AC000208A18EE100AFFF71BFF042808BF00F039
:103AD00085FAB0EE480ABDEC028B10BD4200B2EB95
:103AE000410F37D910F0004F19BFDFED5C1A9FED81
:103AF0005C1ADFED5C1A9FED5C1AB0EE602A0A4694
:103B0000F1EE400A80F00041B0EE420A10460A1A77
:103B10005200B2F1807F34D2484010F0004FDFED08
:103B2000532A9FED533A1DBFBEEE002A71EEE21AF2
:103B300031EE431AB6EE002A04BF71EEA21A31EE3E
:103B4000031AF0EE402A42EE602A40EE020A82EEAC
:103B5000A02A18E011F0004F04BF9FED461AF0EEC6
:103B6000411AD4D010F0004F1CBFDFED431A9FED77
:103B7000431A00E026E004BFDFED411A9FED411A31
:103B8000C5E780EE202A22EE020ADFED3F0ADFEDD4
:103B90003F2ABDEC028B40EE202ADFED3D0A40EECD
:103BA000220ADFED3C2A40EE202ADFED3B0A40EE00
:103BB000220A22EE000A00EE201A31EE020A30EE4E
:103BC000210A10BD4FF07F42B2EB400F28BFB2EB8D
:103BD000410F05D2BDEC028BBDE8104000F0F2B9F8
:103BE00040EA01035B0008BF41F0FF410BD0B2EB9C
:103BF000400F08BFB2EB410F08D120F0804000EE2B
:103C0000100A21F0804100EE901A37E7B2EB400F26
:103C100012BF5FEA410240F0FF4001F000413FF473
:103C20002DAF4A0092EA40033FF528AF002AACBF0F
:103C30009FED1A1A9FED1A1A20EE010A60EE810A12
:103C400010EE100A10EE901A18E70000DB0FC9BF43
:103C5000DB0FC93FDB0F4940DB0F49C00000C9BF84
:103C600022AAFDB90000C93F22AAFD390060ED3E3D
:103C7000C30ACE3700000000000049C022AA7DBA66
:103C80000000494022AA7D3A2DAD65BD8FB8D53DD3
:103C90000FB511BE61C84C3EA8AAAABE0000804F55
:103CA0000000802F10EE101A08B5444A6846B2EBA7
:103CB000410F28D94FF0E640B0EB410F94BF0020F0
:103CC0004FF0FF3000900098002861DB60EE000AA2
:103CD00010F0010F45D010F0020FDFED391A9FED03
:103CE000391A00EEE11ADFED381A40EE811A21EEA2
:103CF000A01AF0EE400A40EE010A08BFF1EE600A99
:103D0000B0EE600A08BD314B21F0004293423CD92D
:103D100011F0004FDFED2E0A20EE201ADFED2D0A04
:103D200019BF31EE601A71EE200A31EE201A71EEE1
:103D3000600ABDEEE01A11EE100A9FED271A00F09E
:103D4000030000EEC10A9FED251A009000EEC10AA3
:103D50009FED231A00EEC10A9FED221A00EEC10A60
:103D6000B1E79FED211A9FED210A10F0020F00EE3E
:103D7000810A9FED1F1A00EE801AB7EE000A00EECE
:103D8000810A18BFB1EE400A08BD00F02FF99AE78A
:103D900010EE100A4000B0F17F4F3CBFB7EE000AB2
:103DA00008BD07D14FF0010000F0DAF9BDE8084086
:103DB00000F00CB9BDE8084000F001B9B61F927ED2
:103DC000336D4C39DA82083CA0AA2ABE490E494616
:103DD00083F9223F0000004B0000C93F00A0FD39DD
:103DE0000020A2331A61342CB93AB2BACA9F2A3DD4
:103DF000DDFFFFBE00B510EE101A2DED028B81B075
:103E0000524A6846B2EB410F2ED94FF0E640B0EB74
:103E1000410F94BF00204FF0FF3000900098B0EEAB
:103E2000408A00286ADB10F0010F4BD068EE080AC8
:103E30009FED471A9FED470A00EE810A9FED461A53
:103E400010F0020F00EE801AB7EE000A00EE810AB1
:103E500002BF01B0BDEC028B00BD00BF01B0B1EEEE
:103E6000400ABDEC028B00BD3C4B21F00042934266
:103E700041D911F0004FDFED3A0A20EE201ADFEDB4
:103E8000390A19BF31EE601A71EE200A31EE201A9C
:103E900071EE600ABDEEE01A11EE100A9FED321AC3
:103EA00000F0030000EEC10A9FED301A009000EE12
:103EB000C10A9FED2F1A00EEC10A9FED2E1A00EEE7
:103EC000C10AABE728EE080A9FED2B1ADFED2B0A9B
:103ED00010F0020F40EE410A9FED291A00EE201A61
:103EE00061EE000AB0EE480A08EE200AB6D101B031
:103EF000BDEC028B00BD00F079F88FE718EE100AD8
:103F00004000B0F17F4F0DD218EE100AFFF7F8FC19
:103F1000042808BF00F062F8B0EE480A01B0BDEC1A
:103F2000028B00BD09D1012000F01AF901B0BDECEF
:103F3000028B5DF804EB00F049B801B0B0EE480A1E
:103F4000BDEC028B5DF804EB00F039B8B61F927E31
:103F5000B93AB2BACA9F2A3DDDFFFFBE490E4946B3
:103F600083F9223F0000004B0000C93F00A0FD394B
:103F70000020A2331A61342C336D4C39DA82083CAC
:103F8000A0AA2ABE10B52DED028BB1EEC08A18EEA4
:103F9000100A20F00040C0F1FF40C00F0AD010EE20
:103FA000100A20F00040C0F1FF40C00F04BF012004
:103FB00000F0D6F8B0EE480ABDEC028B10BD30EE32
:103FC000000A704730EE200A70470000DFED020A59
:103FD00080EEA00A70470000000000009FED020A7A
:103FE00020EE000A70470000000000102DE9F001EB
:103FF0004FF07F42B2EB410F9FBF4FF0FF310160A6
:10400000BDE8F00170474FF0004242EA0123C1F3DE
:10401000C752783A551112F01F0C434CCCF12006D0
:104020007C44C1F3C752A2F178024FEA621204EB5A
:10403000820254F8254008BFD2E9015612D05568D3
:1040400004FA0CF425FA06F73C43976805FA0CF5D8
:1040500027FA06F8D26807FA0CFCF24045EA080590
:104060004CEA0206A4FB034CA5FB0352A6FB036328
:104070001D449D4234BF012600261319334416B156
:10408000934202D903E0934201D2012200E00022D0
:10409000624402F1200C9206DC0C42EA443200EE4B
:1040A000102A5B03DFED210AF8EEC01A00EE103A89
:1040B0004FEA9C1C11F0004FB8EE400AC0F800C057
:1040C00020EE201A00EE105ADFED190AB8EE400A71
:1040D00020EE200A71EE810A70EE800A10EE902A1E
:1040E00002F500626FF30B0200EE902A70EEE11A07
:1040F00031EEC11ADFED101A30EE411A9FED0D0AB4
:1041000020EE800A01EE210A9FED0C1A00EE810AD2
:1041100004BFBDE8F0017047CCF180510160BDE8FB
:10412000F001B1EE400A7047A40D00000000003617
:104130000000802C22AAFD29DB0FC92F0000C92F07
:1041400002E008C8121F08C1002AFAD17047704760
:10415000002001E001C1121F002AFBD170470000BE
:1041600001490860704700004800002010B5084869
:10417000FFF7B3F90446074A0749FCF751F8074827
:10418000FFF7ABF90446034A0349FCF749F810BDB1
:104190006C00002000000008E334000880000020CC
:1041A0002DE9FF5F82B00021DDE90430020DDDF86A
:1041B00040B0034318D044F61050A2F2FF324243FD
:1041C0001514119801281FD0A5EB0B00401C5FEAC5
:1041D000000A4FF000064E4FDFF83891B0465046C7
:1041E00015D5CAF1000413E0119801244AA301284F
:1041F00001D16FEA0B010298119AC0E90031C0E9C0
:10420000024206B0BDE8F09FCBF10000DFE70446B4
:104210000021404A491842EB0450CDE9001012E059
:10422000E00707D032463B4640464946FCF7B6F821
:104230008046894632463B4610461946FCF7AEF8A2
:1042400006460F466410002CEAD1DDE90401DDE9E1
:104250000023BAF1000F06DAFCF7A0F842464B46FD
:10426000FCF79CF805E0FCF70BF942464B46FCF7DF
:1042700007F904460E460022284BFCF79BF903D8A9
:104280004FF0FF30014607E00022254B2046314623
:10429000FBF7DDFFFCF7EFFA102409E0002C0ADB46
:1042A0000A220023FCF7D2F9039B30321A55641E10
:1042B00050EA0102F2D1641C039AC4F111031444C0
:1042C000119A012A03D0012208430DD10AE00843C4
:1042D00004D000204FF0110B119072E7A3EB0B05F7
:1042E0006D1E0DE05B4504DD4FF0000205F1010598
:1042F00004E003DA4FF00002A5F10105002AECD03A
:1043000002981199C0E90231C0E9004579E700003F
:10431000000014400000F03F300000000000F043B7
:104320000000E03F2DE9FF4F95B09B4689460646C9
:1043300000250FE2252877D100242746F84A0121DD
:10434000059400E0044316F8013F203B01FA03F016
:104350001042F7D130782A2811D06FF02F0330782F
:10436000A0F13002092A16D8059A44F0020402EBA3
:10437000820203EB42021044761C0590EFE759F8E5
:10438000042B0592002A03DA504244F400540590AD
:1043900044F00204761C30782E2816D116F8010F4E
:1043A00044F004042A280DD06FF02F023078A0F1D9
:1043B0003003092B09D807EB870302EB4303C71827
:1043C000761CF3E759F8047B761C30786C280FD004
:1043D00006DC4C2817D068280DD06A2814D104E0D8
:1043E000742810D07A280FD10DE044F400140AE0AC
:1043F00044F4801401E044F440147278824202D103
:1044000004F58014761C761C307866280BD013DCFB
:10441000582877D009DC002875D04528F6D04628E2
:10442000F4D047281AD19DE118E0632835D06428DC
:1044300079D0652812D195E1702873D008DC6728FF
:10444000F1D069286FD06E280DD06F2806D1B5E065
:1044500073282CD0752875D0782874D05A461799AF
:1044600090476D1C75E1C4F30250022809D003285F
:104470000DD0D9F8001004280DD00D6009F1040901
:1044800067E1D9F80010EA17C1E90052F6E7D9F858
:1044900000100D80F2E70D70F0E719F8041B8DF89D
:1044A000001000208DF80100EA46012003E059F8D1
:1044B00004AB4FF0FF3061074FF0000102D40DE074
:1044C00008F101018846B9420FDA8045F8DB1AF895
:1044D00008100029F4D108E008F101018846814262
:1044E000FADB1AF808100029F6D105985B46A0EB14
:1044F000080721463846179A00F094FA284400EB42
:10450000080507E04DE029E10DE01AF8010B5A46D5
:1045100017999047B8F10108F7D25B462146384613
:10452000179A13E142E00A220092C4F302524FF0BC
:10453000000A022A08D059F804CB032A4FEAEC718A
:104540000AD00DE029E02AE009F1070121F0070275
:10455000F2E802C1914609E00FFA8CFC4FEAEC71D7
:10456000042A03D14FFA8CFC4FEAEC71002907DAD8
:104570000A460021DCF1000C61EB02012D2202E071
:10458000220504D52B228DF80420012203E0E20746
:1045900001D02022F7E7904659E00A2102E01022DC
:1045A0000DE010214FF0000A00910BE010224FF0B7
:1045B000000A44F004040827009203E008224FF0A8
:1045C000000A0092C4F30252022A05D059F804CB23
:1045D0000021032A08D009E009F1070121F00702B0
:1045E000F2E802C1914605E01FFA8CFC042A01D1D1
:1045F0000CF0FF0C4FF00008220728D5702806D0D9
:10460000009B83F0100353EA0A0305D00EE040221A
:104610008DF80420012208E05CEA010206D0302275
:104620008DF804208DF8050002229046009B83F04F
:10463000080353EA0A030AD15CEA010201D16207C6
:1046400005D530228DF804204FF001087F1E582830
:1046500004D034A003900EA802900DE036A0F9E734
:1046600053466046009AFBF7F1FF84460398825C4C
:104670000298401E029002705CEA0100F0D102989C
:1046800006A9081A00F1200A600702D524F4803434
:1046900000E00127574502DDA7EB0A0000E00020FB
:1046A00000EB0A01009005984144401A0590E00390
:1046B00006D45B462146179A059800F0B3F90544E5
:1046C000002706E001A85A46C05D179990476D1C67
:1046D0007F1C4745F6DBE0030CD55B462146179A65
:1046E000059800F09FF9054404E030205A461799D8
:1046F00090476D1C0099481E00900029F5DC08E0E9
:10470000029802995A460078491C029117999047DD
:104710006D1CBAF10001AAF1010AF1DC65E10000AB
:104720000928010030313233343536373839616287
:10473000636465660000000030313233343536374B
:1047400038394142434445460000000000F058F922
:104750000544761C307800287FF4ECAD19B028466B
:10476000BDE8F08F620700D4062709F1070222F0A6
:10477000070CFCE80223E14603F000485FEA080C5E
:1047800002D00FF2702C0DE05FEA045C02D50FF24C
:10479000682C07E05FEAC47C02D00FF2602C01E0D5
:1047A000AFF2700C4FF0FF3823F00043CDF850C04B
:1047B00065280CD006DC452809D046281DD047289E
:1047C0003DD13DE0662818D067287ED138E0002131
:1047D000112F01DB112000E0781CCDE9000106A9B2
:1047E0000EA8FFF7DDFCDDE90F010E9A0391002111
:1047F000009207F1010A04914DE04FF0004000974C
:10480000CDE9011006A90EA8FFF7CAFCDDE90F02E9
:1048100003920E9B11990022DDF80CA000930492E4
:1048200011B9791C00EB010AB7EB0A0004D4C0F1FE
:10483000FF3007F1010A0490AAEB0700019044E061
:10484000012F00DA01270021112F01DD112000E0E6
:104850003846CDE9000106A90EA8FFF7A1FCDDE965
:104860000F010E9A0391002104910092BA4621078C
:104870000CD40399514500DA8A46BAF1010F05DDDF
:10488000009AAAF10101515C302908D0B84202DA3D
:1048900010F1040F06DA0121CDE9011015E0AAF1AB
:1048A0000101E9E7002805DC049901440491AAEB21
:1048B000000102E0411C514500DD8A460499401A7E
:1048C000401C01904FF000400290200704D4019852
:1048D000504501DBCDF8048000208DF84F00029890
:1048E0000DF14F07B0F1004F25D02B200E9002980C
:1048F0004FF0020800280CDA404202902D200E9062
:1049000007E00A210298FBF78BFE3031029007F88E
:10491000011DB8F10001A8F10108F2DC029800289D
:10492000EFD1791E0E980870307800F0200040F02A
:10493000450007F8020D12A8C01B00F107081498E3
:10494000007800B1012000EB0A01019801EBE07151
:1049500005984144401A401E0590E00306D45B468A
:104960002146179A059800F05DF8054414980078E0
:1049700018B15A46179990476D1CE00324D55B4641
:104980002146179A059800F04DF805441CE004985C
:10499000002807DBDDE90301884203DD0098405C65
:1049A000179901E0179930205A469047049805F16D
:1049B0000105401C04900198401E019004D12E2056
:1049C0005A46179990476D1CBAF10001AAF1010AE5
:1049D000DDDC05E017F8010B5A46179990476D1C6E
:1049E000B8F10001A8F10108F4DC5B462146179AF2
:1049F0000598ABE62D0000002B0000002000000011
:104A00002DE9F041044600251E461746880404D4CB
:104A100005E039462020B0476D1C641EF9D52846B4
:104A2000BDE8F0812DE9F041044600251E46904680
:104A3000C80301D5302700E02027880404D505E00D
:104A400041463846B0476D1C641EF9D52846BDE87E
:104A5000F0814A68002A06D00A68531C0B60107067
:104A60004868401E4860704710B5002821D0114B9F
:104A70000022001F196803E0814203D80A464968F2
:104A80000029F9D152B11368841A9C4204D10068FC
:104A900018441060104602E0506000E0186039B120
:104AA00002680B1A934203D10B681A4402604968EA
:104AB000416010BD5C0000202DED068B88B04FF4E6
:104AC000E130FEF759FCA820FCF71EFC00BF40486F
:104AD0000068C0B93020FEF7E9FE04463D49416256
:104AE000002101854FF480414185892181854FF462
:104AF00080710184802141843749C1613749016156
:104B000000BF33480460324807683846FEF7EAFCC5
:104B1000FEF704FB4FF4FA60FEF732FBFEF772FB80
:104B2000002500262EA10020FCF7ECF9FEF7FCF88A
:104B30004DE005A8FDF72CFF1420FEF721FB9DEDAD
:104B4000070A10EE101A0846FBF709FD41EC180B96
:104B50009DED060A10EE101A0846FBF700FD41EC29
:104B6000190B9DED050A10EE101A0846FBF7F7FC2D
:104B700041EC1A0B8DED028B8DED009B53EC1A2B43
:104B80001CA000F08DF84FF47A712748FEF78AFCDC
:104B900058B185F0010525B140212448FBF76AFF93
:104BA00003E040212148FBF763FF4FF47A7120486E
:104BB000FEF778FC58B186F0010626B180211B482B
:104BC000FBF758FF03E080211848FBF751FFB0E7DF
:104BD00068000020801A06000004024000540040D3
:104BE0000D0A206779726F207374617274200D0A48
:104BF000000000000D0A20796177206973202530BC
:104C00002E33662C20706974636820697320253008
:104C10002E33662C20726F6C6C2069732025302E29
:104C20003366200D0A0000006C00002000000240E6
:104C300080000020F0B50B30154D20F00701002456
:104C4000144A0FE003688B420BD38B4205D95E1ADE
:104C500043184768C3E9006700E04368136002C077
:104C600004E0021D10680028ECD12046002802D183
:104C7000286808B10020F0BD064A07481060074ABE
:104C8000121A22F00702C0E9002401202860D7E7A9
:104C9000600000205C000020F42A0020F02C00209E
:104CA0000FB410B5A2B025A80190802102A8019BE5
:104CB000249AFEF70FFE0446224602A90020FCF7C4
:104CC000BBF800200190204622B010BC5DF814FB18
:104CD00010B500EE100A2DED028BB1EEC08A18EE71
:104CE000100A20F00040C0F1FF40C00F0AD010EEC3
:104CF000100A20F00040C0F1FF40C00F04BF0120A7
:104D0000FFF72EFA18EE100ABDEC028B10BD000062
:104D100010B50748006840B90420FEF7C7FD0446F7
:104D2000FEF788FB0446024804600148006810BD95
:104D30006400002010B50F480068C0B93020FEF7AD
:104D4000B5FD04460C494162002101854FF48041C4
:104D50004185892181854FF48071018480214184BE
:104D60000649C1610649016100BF0248046001486B
:104D7000006810BD68000020801A06000004024090
:104D800000540040303132333435363738394142FF
:104D9000434445460000803F000000000000000042
:104DA000000000000000803F000000000000803F85
:104DB00000000000000000000000000000000000F3
:104DC000000000000000803F000000006E83F9A298
:104DD0002915444ED15727FCC0DD34F5999562DB87
:104DE0004190433CAB6351FE0C4E00080000002094
:104DF0006C00000040410008784E00086C00002064
:104E0000843000005041000865F3FFFF00000000FF
:104E10000102030401020304060708090000000060
:104E20000000000000000000000000000000000082
:104E3000D44880410AA98E3A00000000000000001A
:104E40000000000000000000000000000000000062
:104E50000000000000000000000000000000000052
:104E60000000000000000000000000000000000042
:084E700000000000000000003A
:040000050800018965
:00000001FF
