:020000040800F2
:1000000010090020A10100080705000821030008CD
:1000100003050008410200089909000800000000DB
:10002000000000000000000000000000BB07000806
:10003000450200080000000081050008E5070008EF
:10004000BB010008BB010008BB010008BB010008A0
:10005000BB010008BB010008BB010008BB01000890
:10006000BB010008BB010008BB010008BB01000880
:10007000BB010008BB010008BB010008BB01000870
:10008000BB010008BB010008BB010008BB01000860
:10009000BB010008BB010008BB010008BB01000850
:1000A000BB010008BB010008BB010008BB01000840
:1000B000BB010008BB010008BB010008BB01000830
:1000C000BB010008BB010008BB010008BB01000820
:1000D000BB010008BB010008BB010008BB01000810
:1000E000BB010008BB010008BB010008BB01000800
:1000F000BB010008BB010008BB010008BB010008F0
:10010000BB010008BB010008BB010008BB010008DF
:10011000BB010008BB010008BB010008BB010008CF
:10012000BB010008BB010008BB010008BB010008BF
:10013000BB010008BB010008BB010008BB010008AF
:10014000BB010008BB010008BB010008BB0100089F
:10015000BB010008BB010008BB010008BB0100088F
:10016000BB010008BB010008BB010008BB0100087F
:10017000BB010008BB010008BB010008BB0100086F
:10018000BB010008BB010008DFF810D000F046F802
:1001900000F034F800480047D51500081009002089
:1001A0000648804706480047FEE7FEE7FEE7FEE711
:1001B000FEE7FEE7FEE7FEE7FEE7FEE7E9070008E9
:1001C0008901000840EA01039B0703D009E008C940
:1001D000121F08C0042AFAD203E011F8013B00F80C
:1001E000013B521EF9D27047034611F8012B00F86B
:1001F000012B002AF9D118467047000070B5054C54
:10020000054D03E0206820448047241DAC42F9D10D
:1002100070BD0000C8170008CC170008064C074D39
:1002200006E0E06840F0010394E8070098471034C6
:10023000AC42F6D3FFF7ACFFA8170008C8170008B8
:1002400000BFFEE77047F0B50A46002100230024F6
:1002500000BF3DE0012505FA01F3156805EA030436
:100260009C4234D105684F000326BE40B54305606B
:100270004E005568B5400668354305605568012D48
:1002800002D05568022D16D185684F000326BE4066
:10029000B54385604E009568B540866835438560F6
:1002A000456801268E40B5434560456896898E4075
:1002B000B6B235434560C5684F000326BE40B5431E
:1002C000C5604E001569B540C6683543C560491C18
:1002D0001029BFD3F0BDF0B5002300244D07ED0E6B
:1002E00002FA05F3CE1000F1200555F826504E070E
:1002F000F70E0F26BE40B543CF1000F1200646F89A
:100300002750CE1000F1200555F8265045EA030489
:10031000CE1000F1200545F82640F0BD018370475E
:1003200000BFFEE721B1028842F48062028004E04F
:1003300002884FF6FF331A400280704770B50246BC
:100340000024002500230020958A138B1B0445EA16
:10035000030626F07F4404EA01068E4201D1012003
:1003600000E0002070BD21B1028842F0010202804D
:1003700004E002884FF6FE731A400280704721B1F4
:10038000028842F48072028004E002884FF6FF6324
:100390001A400280704721B1028842F40072028044
:1003A00004E002884FF6FF531A40028070470CB5F4
:1003B0000246002000230193009300920B0F01934B
:1003C00021F07F41019B1BB1009B1433009303E09C
:1003D000090C009B18330093009B1B680B400BB16A
:1003E000012000E000200CBD2DE9FF4704460D462A
:1003F0000026B1460427DFF8CC80A6884FF6C070EF
:100400000640684600F0EEF8DDF808802E48B8FB9C
:10041000F0F01FFA80F946EA0906A68020884FF618
:10042000FE710840208000262849286888420CD8A0
:1004300028684000B8FBF0F087B2042F00DA0427E8
:100440003E4309F10100208427E0E8884BF6FF7164
:10045000884206D1286800EB4000B8FBF0F087B274
:1004600009E0286800EBC00101EB0010B8FBF0F0D8
:1004700087B247F48047C7F30B0008B947F001077C
:1004800047F4004006434FF4967009FB00F04FF428
:100490007A7190FBF1F0401C2084A683208840F004
:1004A0000100208026884FF6F5300640A88869892B
:1004B000084306432680A889298908432081BDE88E
:1004C000FF87000000127A0040420F00A086010062
:1004D00008B5024600200090009200980844009061
:1004E0000098008808BD0146088AC0B2704712B162
:1004F00041F0010101E001F0FE010182704701823B
:10050000704700BFFEE7704770B5002100230F223F
:1005100044681CB3174C246804F4E064C4F5E06438
:10052000C4F30721C1F10404E3B20A4144789C40BA
:10053000E1B28478144021430C07210E0E4C05785B
:100540006155047804F01F050124AC4005786D1155
:10055000AD0005F1E025C5F8004109E0047804F09C
:100560001F050124AC40054D0678761145F826405C
:1005700070BD00000CED00E000E400E080E100E070
:100580007047000029B1064A12680243044B1A6002
:1005900004E0034A12688243014B1A60704700006E
:1005A0003038024029B1064A12680243044B1A60EF
:1005B00004E0034A12688243014B1A60704700004E
:1005C0004038024029B1064A12680243044B1A60BF
:1005D00004E0034A12688243014B1A60704700002E
:1005E00044380240F0B500210022002402250026F4
:1005F0000223324F3F6807F00C0121B1042905D0D6
:10060000082937D105E02E4F076036E02D4F0760EF
:1006100033E02A4F3F1F3F68C7F38056274F3F1FE5
:100620003F6807F03F036EB1264FB7FBF3F7DFF8E3
:100630008CC0ACF1040CDCF800C0CCF3881C07FBC8
:100640000CF40CE01E4FB7FBF3F7DFF870C0ACF111
:10065000040CDCF800C0CCF3881C07FB0CF4174F2B
:100660003F1F3F68C7F301477F1C7D00B4FBF5F7D0
:10067000076002E0124F076000BF00BF0F4F3F68E6
:1006800007F0F0010909104F7A5C0768D74047600E
:100690000A4F3F6807F4E051890A0B4F7A5C4768BC
:1006A000D7408760054F3F6807F46041490B064F0C
:1006B0007A5C4768D740C760F0BD00000838024048
:1006C0000024F40000127A00000000202DE9F0411F
:1006D00004460D46164600BF0D48007808B900F0E4
:1006E000C5FB00BFEFF311800746202080F311887F
:1006F00000BF00BF32462946204600F00BF8804676
:10070000F8B280F3118800BF00BF4046BDE8F08119
:10071000580000202DE9F047074688461646C24695
:1007200007EB47011B4800EBC109D9F8140020B1C1
:10073000012811D0022826D11EE0484600F087FB90
:100740000546B54201D2002405E034463246514602
:10075000484600F01DFB18E0484600F078FB0546CF
:10076000B54201D2284600E03046044622465146B2
:10077000484600F00DFB08E032465146484600F07E
:100780002DFB044601E0002400BF00BF2046BDE869
:10079000F0870000700000200FB438B5044606A8AA
:1007A00000906A462046059900F03CF90546002075
:1007B0000090284638BC5DF814FB7047042808D127
:1007C0004FF0E021096941F004014FF0E02211618E
:1007D00007E04FF0E021096921F004014FF0E02229
:1007E000116170477047000010B51548006840F46B
:1007F0007000134908601348006840F00100114977
:10080000086000200F49083108600E4800680E4952
:1008100008400C4908600D48091D0860081F006861
:1008200020F48020091F0860002006490C31086070
:1008300000F054FB4FF0006001498039086010BDA2
:1008400088ED00E000380240FFFFF6FE1030002483
:1008500001F40072B2F5007F00D100BFCA430280EC
:10086000704721B1828942F40052828104E082897A
:100870004DF6FF731A4082817047F0B5034600249D
:1008800000260025002040F66A17B94200D100BFBB
:100890001846C1F3421401F01F06012707FA06F5B6
:1008A000012C01D10C3004E0022C01D1103000E009
:1008B00014301AB107682F43076002E00768AF439E
:1008C0000760F0BD2DE9FF4705460E460024A1460E
:1008D00000BFA046B08900B100BF2C8A24F4405468
:1008E000F08804432C82AC8941F20C608443B088C8
:1008F00031890843718908430443AC81AC8A24F4EC
:100900004074B0890443AC826846FFF76BFE204810
:10091000854202D01F48854202D1DDF80C9001E0EB
:10092000DDF80890A88900F4004040B109EBC90047
:1009300000EB091031684900B0FBF1F707E009EB63
:10094000C90000EB091031688900B0FBF1F76420A1
:10095000B7FBF0F004012009642101FB1078A8899D
:1009600000F4004040B1322000EBC800B0FBF1F0D1
:1009700000F00700044308E0322000EB0810642177
:10098000B0FBF1F000F00F0004432C81BDE8FF87BD
:10099000001001400014014000BFFEE710B50446FE
:1009A0006FF00400FFF70AFFE11704EB5171C1F388
:1009B000C701074A11701046007800EB4001C1EBF7
:1009C000C0104FF6FF7101EAC0000249088010BD57
:1009D000100000201200002010B580226B2110486A
:1009E00000F0D2FC4FF4FA6000F03AF900226B21DB
:1009F0000B4800F0C9FC07221921094800F0C4FC8B
:100A000006221A21064800F0BFFC18221B210448C8
:100A100000F0BAFC01221C21014800F0B5FC10BD19
:100A20001C0000202DE9F04F99B082460D46144677
:100A300003A814904020159000201690CDF860A0D7
:100A4000179000BF95F900606D1C06B9E3E0252EF4
:100A500073D100274FF0010900BF95F90060232EE4
:100A600012D02B2E0CD02D2E02D0302E10D103E020
:100A700047F001076D1C0EE047F002076D1C0AE00D
:100A800047F004076D1C06E047F008076D1C02E004
:100A90004FF0000900BF00BFB9F1000FDDD14FF0EA
:100AA000000800BF95F90060302E01DB392E00DD13
:100AB00007E06D1CA6F1300008EB880100EB41084F
:100AC000F0E700BF0020139095F900602E2E13D19F
:100AD0006D1C00BF95F90060302E01DB392E00DD62
:100AE00009E06D1CA6F13000139901EB810100EBC8
:100AF00041001390EEE700BF95F9006000BF6C2E37
:100B000001D0682E03D16D1C95F9006000E000E073
:100B1000F5E700BF702E5DD008DC252E6AD0582E78
:100B200035D0632E0AD0642E69D113E0732E3CD0E9
:100B3000752E1DD0782E62D128E064E02168081D52
:100B40002060D1F800904FFA89FB594614A800F0B4
:100B50003BFA55E02168081D2060D1F80090CDE9EE
:100B600000870A22494614A8139B00F0C5FA47E003
:100B70002168081D2060D1F80090CDE900870A2285
:100B8000494614A8139B00F041FA39E000BF2168E0
:100B9000081D2060D1F80090CDE900871022494659
:100BA00014A8139B00F032FA2AE02168081D206087
:100BB000D1F800B000BF9BF900600BF1010B06B942
:100BC00006E0314614A800F0FFF917980028F2DA81
:100BD00000BF15E02168081D2060D1F800900020BA
:100BE00008210B461022CDE90010494614A800F058
:100BF0000DFA05E0252114A800F0E6F900E000BF99
:100C000000BF6D1C03E0314614A800F0DDF9179811
:100C10000028BFF617AF00BF179800280ADD169806
:100C200020B103A95046169AFFF750FDDDE91610D2
:100C300008441790179819B0BDE8F08F70B50446B6
:100C40002146064800F092FB45B2601CC1B2034841
:100C500000F08CFB46B206EB052070BD1C000020A6
:100C600070B504464FF4077094FBF0F0C6B24FF431
:100C7000077094FBF0F100FB114085B205E04FF4E2
:100C8000077000F009F8701EC6B2002EF7D115B13A
:100C9000284600F001F870BD0146114A12884A4307
:100CA0004FF0E0235A6100229A611A46126942F01D
:100CB00001021A6100BF4FF0E022106900F001024A
:100CC0001AB100F48032002AF5D04FF0E022126908
:100CD00022F001024FF0E0231A6100229A6170476E
:100CE0001200002010B58CB0044601210846FFF721
:100CF00049FC01211020FFF765FC07220921224849
:100D0000FFF7E9FA07220A211F48FFF7E4FA4FF438
:100D1000C060079002200890099000200A900120EE
:100D20000B9007A91848FFF78EFA03940020ADF83E
:100D30001000ADF81200ADF81400ADF818000C204A
:100D4000ADF8160003A91148FFF7BCFD01210F48BB
:100D5000FFF787FD40210D48FFF77AFD012240F2A1
:100D600025510A48FFF789FD25208DF8040003204E
:100D70008DF805008DF806000120029001A8FFF70C
:100D8000C3FB0CB010BD0000000002400010014089
:100D90002DE9F047044689461546E668A068871B9A
:100DA000AF4208D9616888192A464946FFF70AFA0E
:100DB0007019E06010E0B8466168881942464946FB
:100DC000FFF700FAA5EB070809EB07014246606848
:100DD000FFF7F8F9C4F80C80BDE8F0872DE9F0477B
:100DE0000446894617464FF0000AE56800BFD4F86C
:100DF0001080A84503D9A8EB0500461E04E0A5EB2A
:100E00000800401CA1680E1AA068401BB04201D91E
:100E1000304601E0A068401B0646BE4201D2304683
:100E200000E0384606466168481932464946FFF7F1
:100E3000C9F9B244B144BF1B3544A068A84200D1EF
:100E40000025E560002FD2D15046BDE8F08710B5EF
:100E500001460A69CB689A4204D88C68641EE41A79
:100E6000A01801E0D41A601E10BD000010B5124C8D
:100E700003202061606111A0A0611349E1614FF47A
:100E8000806121620021A1626162E1620BA02066A3
:100E90000E4961661021A16600212167E166616744
:100EA0000BA1E01DFFF7A0F90AA12046FFF79CF96E
:100EB0002020A07110BD0000580000205465726D04
:100EC000696E616C00000000000100200005002038
:100ED0005254540053454747455200000CB500207A
:100EE000019000903448006840F480303249086036
:100EF00000BF3148006800F4003000900198401CA9
:100F00000190009818B90198B0F5A04FF1D12A4886
:100F1000006800F4003010B10120009001E00020D2
:100F200000900098012846D123484030006840F0E6
:100F300080502149403108602048006840F440401A
:100F40001E4908601C48083000681B4908310860C9
:100F50000846006840F4004008600846006840F415
:100F6000A05008601648091F0860081F006840F07C
:100F70008070091F086000BF0F48006800F0007013
:100F80000028F9D040F205700E4908600A48083080
:100F9000006820F00300084908310860084600682E
:100FA00040F00200086000BF03480830006800F00D
:100FB0000C000828F8D10CBD003802400070004039
:100FC00008544007003C024070B504460E46A56830
:100FD000681C6168814206D320684655681CA06081
:100FE000E068401CE060D4E9011088420DD1A2689D
:100FF00021682069FFF76AFBA168884203D04FF09F
:10100000FF30E06001E00020A06070BD2DE9FC5FD2
:101010008046894615461E460C9CCDF80490012753
:10102000BB4605E00198B0FBF5F001900BF1010B18
:101030000198A842F6D25E4500D9B3460D9800F05B
:101040000100D0B9CCB10D9800F00200022803D104
:1010500016B93020009001E02020009009E0641EC5
:1010600040460099FFF7B0FFD8F80C00002800DADE
:1010700002E00CB1A345F2D300BFD8F80C00002861
:1010800035DB09E0012E01D9761E04E0B9FBF7FA41
:10109000AA4500D201E06F43F4E700BF00BFB9FBEF
:1010A000F7FA0AFB1799134810F90A104046FFF7A0
:1010B0008BFFD8F80C00002800DA03E0B7FBF5F747
:1010C000002FECD100BF0D9800F0010078B174B191
:1010D00009E0641E20214046FFF776FFD8F80C0097
:1010E000002800DA02E00CB1A345F2D300BFBDE84E
:1010F000FC9F0000501700082DE9FC5F06460F46D4
:1011000092469846DDE90C45002F01DA784200E06E
:10111000384683464FF0010903E09BFBFAFB09F1D7
:101120000109D345F9DAC84500D9C14634B1002FC9
:1011300003DB05F00400042800D1641E05F0020062
:1011400010B1B8F1000F11D005F0010070B96CB109
:1011500008E0641E20213046FFF736FFF0680028C3
:1011600000DA02E00CB1A145F3D300BFF06800281B
:1011700036DB002F05DA7F422D213046FFF724FFB2
:1011800007E005F00400042803D12B213046FFF7C7
:101190001BFFF068002823DB05F00200022814D1B1
:1011A00005F0010088B9B8F1000F0ED16CB108E06C
:1011B000641E30213046FFF707FFF068002800DA90
:1011C00002E00CB1A145F3D300BFF068002807DBB3
:1011D0004346524639463046CDE90045FFF716FFF3
:1011E000BDE8FC9F10B5044601210220FFF7CAF9B3
:1011F00001214020FFF7C6F9A08DE18D0843606111
:101200000121A161002121620221E16104F11401A7
:10121000A06AFFF718F8E18DA06AFFF77FF8A18DAB
:10122000A06AFFF77BF80221A16101212162A08D54
:10123000E18D08436061002161620221E1610422C5
:101240000821A06AFFF747F804220721A06AFFF7E8
:1012500042F804F11401A06AFEF7F5FF01214805E8
:10126000FFF7A0F9206B2060A08EA080E08EE080C8
:10127000208F20814FF4806060810001A0810121D6
:101280000348FFF770F821460148FFF7ADF810BD9D
:10129000005400402DE9FC478046894614461E460E
:1012A000002750254FF4FA70019001204FF4FA7393
:1012B000002241040090404600F076F801212948C0
:1012C000FFF75DF802206423012227490090404681
:1012D00000F06AF8002249462248FFF708F9032087
:1012E000642301222049491C0090404600F05CF82C
:1012F0000420642301221C497F310090404600F005
:1013000053F814211748FFF7E3F818211548FFF7A1
:10131000DFF813E021781348FFF7F1F80520642384
:10132000012211497F310090404600F03DF8781CC1
:1013300087B2641C6D1E002D00DA0025B74201DA69
:10134000002DE7D10620642301220749C91C009023
:10135000404600F029F801210248FFF71CF8002060
:10136000BDE8FC8700540040010000107CB5054634
:101370000C46012001AB2246D0210090284600F007
:1013800077F89DF804007CBDF8B506460C46154676
:101390008DF800408DF8015002236A46D021304676
:1013A000FFF778FFF8BD00002DE9F04707468846B3
:1013B00015461E46DDF8209034460EE0601E0446B9
:1013C000002C01DA002004463CB94FFA89F1384676
:1013D00000F030F80120BDE8F0872CB14146034809
:1013E000FEF7E5FFA842E9D100BFF4E70054004052
:1013F0002DE9F0410746884615461E462C460DE06D
:10140000601E0446002C01DA0020044634B971B293
:10141000384600F00FF80120BDE8F0812CB14146BC
:101420000348FEF78BFF0028EAD000BFF4E7000076
:101430000054004070B505460C4607480068401C43
:10144000054908602346084604A102680020FFF70A
:10145000A3F9012070BD0000140000206661696CD2
:101460006564203A202564203A202564200D0A0076
:101470002DE9FC478046894617461C460A9D4FF4D5
:10148000FA76304601900720334600224FF40031AF
:1014900000904046FFF788FF01213448FEF76FFFB8
:1014A0000823324632494046FFF7A2FF0022494650
:1014B0002E48FFF71CF8092332462E494046FFF715
:1014C00097FF01212948FEF74EFF39462748FFF7CD
:1014D00016F80A2332462749891C4046FFF788FF41
:1014E00001212248FEF74BFF0B233246204940469C
:1014F000FFF77EFF012249461C48FEF7F8FF0C2348
:1015000032461B49491C4046FFF772FF1BE0012D84
:1015100007D100211548FEF705FF01211348FEF70A
:101520003AFF13493F311148FEF708FF38B10F4821
:10153000FEF7D9FF2070641C681E85B203E0761E9A
:10154000002E00DA00260DB1002EE0D1142107484C
:10155000FEF7BEFF18210548FEF7BAFF0121034838
:10156000FEF7E0FE0020BDE8FC87000000540040CC
:10157000010003008200070002E008C8121F08C132
:10158000002AFAD170477047002001E001C1121F04
:10159000002AFBD1704700000A480B490163002173
:1015A00081864FF48041C186892101874FF4807183
:1015B00081858021C185054981620549016100BF9E
:1015C000704700001C000020801A06000004024042
:1015D000005400404FF4E130FFF784FBA820FFF7F0
:1015E000DDF92648FFF7FEFDFFF7F6F94FF4FA6044
:1015F000FFF736FB22A10020FFF7CEF83CE03B20AE
:10160000FFF71CFB0446224622A10020FFF7C4F886
:101610003D20FFF713FB0446224625A10020FFF7DB
:10162000BBF83F20FFF70AFB0446224627A1002013
:10163000FFF7B2F84320FFF701FB044622462BA137
:101640000020FFF7A9F84520FFF7F8FA04462246E4
:101650002EA10020FFF7A0F84720FFF7EFFA04467D
:10166000224632A10020FFF797F81420FFF7F8FA7E
:1016700036490020FFF790F8C1E700001C00002069
:101680000D0A206779726F207374617274200D0ADD
:10169000000000000D0A2D2D2D2D2D2D2D2D2D613D
:1016A000582D2D2D2D2D2D2D2D2564200D0A0000BA
:1016B0000D0A2D2D2D2D2D2D2D2D2D61592D2D2D3D
:1016C0002D2D2D2D2D2D2564200D0A000D0A2D2DDB
:1016D0002D2D2D2D2D2D2D615A2D2D2D2D2D2D2DD9
:1016E0002D2D2D2564200D0A000000000D0A2D2D42
:1016F0002D2D2D2D2D2D2D67582D2D2D2D2D2D2DB5
:101700002D2D2D2564200D0A000000000D0A2D2D21
:101710002D2D2D2D2D2D2D67592D2D2D2D2D2D2D93
:101720002D2D2D2564200D0A000000000D0A2D2D01
:101730002D2D2D2D2D2D2D675A2D2D2D2D2D2D2D72
:101740002D2D2D2564200D0A0000000060170008D3
:1017500030313233343536373839414243444546E7
:101760003D3D3D3D3D3D3D3D3D3D3D3D3D3D3D3DA9
:101770003D3D3D3D3D3D3D3D3D3D3D3D3D3D3D3D99
:101780003D3D3D3D3D3D3D3D3D3D3D3D3D3D3D3D89
:101790003D3D3D3D3D3D3D3D3D3D3D3D3D3D3D3D79
:1017A0003D3D3D3D3D000000CC17000800000020FD
:1017B0001C00000078150008E81700081C00002035
:1017C000F408000088150008D1FDFFFF00000000AC
:1017D00001020304010203040607080900000000D7
:0817E000000000000000000001
:040000050800018965
:00000001FF
