:020000040800F2
:10000000500B0020A50100086D04000865040008DD
:100010006904000881030008250A000800000000A8
:10002000000000000000000000000000370700088A
:100030008503000800000000FD04000861070008B7
:10004000BF010008BF010008BF010008BF01000890
:10005000BF010008BF010008BF010008BF01000880
:10006000BF010008BF010008BF010008BF01000870
:10007000BF010008BF010008BF010008BF01000860
:10008000BF010008BF010008BF010008BF01000850
:10009000BF010008BF010008BF010008BF01000840
:1000A000BF010008BF010008BF010008BF01000830
:1000B000BF010008BF010008BF010008BF01000820
:1000C000BF010008BF010008BF010008BF01000810
:1000D000BF010008BF010008BF010008BF01000800
:1000E000BF010008BF010008BF010008BF010008F0
:1000F000BF010008BF010008BF010008BF010008E0
:10010000BF010008BF010008BF010008BF010008CF
:10011000BF010008BF010008CD070008BF010008AB
:10012000BF010008BF010008BF010008BF010008AF
:10013000BF010008BF010008BF010008BF0100089F
:10014000BF010008BF010008BF010008BF0100088F
:10015000BF010008BF010008BF010008BF0100087F
:10016000BF010008BF010008BF010008BF0100086F
:10017000BF010008BF010008BF010008BF0100085F
:10018000BF010008BF010008DFF814D000F09EF89E
:1001900000F036F800480047E913000800F068F85E
:1001A000500B00200648804706480047FEE7FEE760
:1001B000FEE7FEE7FEE7FEE7FEE7FEE7FEE7FEE717
:1001C000650700088901000840EA01039B0703D086
:1001D00009E008C9121F08C0042AFAD203E011F886
:1001E000013B00F8013B521EF9D27047034611F85B
:1001F000012B00F8012B002AF9D1184670470000A6
:1002000070B5054C054D03E0206820448047241D4F
:10021000AC42F9D170BD000010150008141500089B
:100220002DE9F041074615460E46102001F010F961
:1002300004000AD06760C4E9026500F00BF80168A9
:10024000216004600020BDE8F0810120FBE700F0A0
:1002500030B8000000487047140000200348704781
:100260000248001D011F8860001D70471800002013
:100270002DE9F0410646FFF7EDFF8046454613E0C5
:1002800016B1E068B0420ED120682860D4E90101BF
:10029000D8F800708847204601F07EF8D8F80000B2
:1002A000B842EBD100E025462C68002CE8D1BDE82F
:1002B000F08110B500F021F8016919B10022026146
:1002C000884701E080688047AFF30080064C074D07
:1002D00006E0E06840F0010394E807009847103416
:1002E000AC42F6D3FFF754FFF014000810150008D5
:1002F0007047000010B5AFF3008070B5FFF7B0FF96
:1003000004680546A4B9202001F0A2F8040011D029
:10031000094900202C60C4E900010849A16020734C
:10032000206160610649A06109B100F00BF8E0614D
:10033000204670BDAFF3008000000000F502000809
:100340000000000010B5882001F082F8002801D0DC
:100350000021017010BD802902D808B1017809B1CF
:1003600000207047012100F8081B704718B100F108
:100370000802914201D000207047002101707047AF
:1003800000BFFEE77047F0B50A46002100230024B5
:1003900000BF3DE0012505FA01F3156805EA0304F5
:1003A0009C4234D105684F000326BE40B54305602A
:1003B0004E005568B5400668354305605568012D07
:1003C00002D05568022D16D185684F000326BE4025
:1003D000B54385604E009568B540866835438560B5
:1003E000456801268E40B5434560456896898E4034
:1003F000B6B235434560C5684F000326BE40B543DD
:10040000C5604E001569B540C6683543C560491CD6
:100410001029BFD3F0BDF0B5002300244D07ED0E29
:1004200002FA05F3CE1000F1200555F826504E07CC
:10043000F70E0F26BE40B543CF1000F1200646F858
:100440002750CE1000F1200555F8265045EA030448
:10045000CE1000F1200545F82640F0BD41837047DD
:100460000183704700BFFEE700BFFEE77047000052
:1004700070B5002100230F2244681CB3174C246878
:1004800004F4E064C4F5E064C4F30721C1F104049A
:10049000E3B20A4144789C40E1B28478144021439D
:1004A0000C07210E0E4C05786155047804F01F05E9
:1004B0000124AC4005786D11AD0005F1E025C5F8CB
:1004C000004109E0047804F01F050124AC40054D0B
:1004D0000678761145F8264070BD00000CED00E06E
:1004E00000E400E080E100E002490143024A1160BB
:1004F000704700000000FA050CED00E070470000B6
:1005000029B1064A12680243044B1A6004E0034A08
:1005100012688243014B1A60704700003038024075
:1005200029B1064A12680243044B1A6004E0034AE8
:1005300012688243014B1A60704700004038024045
:1005400029B1064A12680243044B1A6004E0034AC8
:1005500012688243014B1A60704700004438024021
:10056000F0B5002100220024022500260223324F8C
:100570003F6807F00C0121B1042905D0082937D1C3
:1005800005E02E4F076036E02D4F076033E02A4F1D
:100590003F1F3F68C7F38056274F3F1F3F6807F054
:1005A0003F036EB1264FB7FBF3F7DFF88CC0ACF119
:1005B000040CDCF800C0CCF3881C07FB0CF40CE046
:1005C0001E4FB7FBF3F7DFF870C0ACF1040CDCF89A
:1005D00000C0CCF3881C07FB0CF4174F3F1F3F688B
:1005E000C7F301477F1C7D00B4FBF5F7076002E00D
:1005F000124F076000BF00BF0F4F3F6807F0F001C8
:100600000909104F7A5C0768D74047600A4F3F6876
:1006100007F4E051890A0B4F7A5C4768D74087603E
:10062000054F3F6807F46041490B064F7A5C476805
:10063000D740C760F0BD0000083802400024F40035
:1006400000127A00000000202DE9F04104460D461A
:10065000164600BF0D48007808B900F06DFC00BFD9
:10066000EFF311800746202080F3118800BF00BF00
:1006700032462946204600F00BF88046F8B280F357
:10068000118800BF00BF4046BDE8F0819400002003
:100690002DE9F047074688461646C24607EB470154
:1006A0001B4800EBC109D9F8140020B1012811D072
:1006B000022826D11EE0484600F02FFC0546B54230
:1006C00001D2002405E0344632465146484600F047
:1006D000C5FB18E0484600F020FC0546B54201D2B3
:1006E000284600E03046044622465146484600F07F
:1006F000B5FB08E032465146484600F0D5FB0446BB
:1007000001E0002400BF00BF2046BDE8F0870000E4
:10071000AC0000200FB438B5044606A800906A4625
:100720002046059900F09EF90546002000902846D5
:1007300038BC5DF814FB7047042808D14FF0E02165
:10074000096941F004014FF0E022116107E04FF028
:10075000E021096921F004014FF0E02211617047A6
:100760007047000010B51548006840F47000134948
:1007700008601348006840F001001149086000203B
:100780000F49083108600E4800680E4908400C49BE
:1007900008600D48091D0860081F006820F48020CB
:1007A000091F0860002006490C31086000F0FCFBBE
:1007B0004FF0006001498039086010BD88ED00E00D
:1007C00000380240FFFFF6FE1030002410B5012172
:1007D0000A4800F027F801280ED10121074800F04F
:1007E00012F800F06BFE04462068401C206000BF39
:1007F0000121024800F007F810BD00000010004081
:10080000CA4302827047CA430282704721B10288FC
:1008100042F00102028004E002884FF6FE731A40A3
:100820000280704730B50246002000230024158A5C
:1008300005EA0103958905EA010413B10CB1012011
:1008400000E0002030BD1AB183890B43838102E0B0
:1008500083898B438381704700220288184B98421A
:100860000ED0184B98420BD0B0F1804F08D0164BE9
:10087000984205D0154B984202D0154B984204D1AE
:100880004FF68F731A404B881A43124B984207D089
:10089000114B984204D04FF6FF431A400B891A437C
:1008A00002804B68C3620B880385054B984202D0D7
:1008B000044B984201D18B7A0386012383827047CF
:1008C0000000014000040140000400400008004016
:1008D000000C0040001000400014004001F40072C1
:1008E000B2F5007F00D100BFCA430280704721B13A
:1008F000828942F40052828104E082894DF6FF73BE
:100900001A4082817047F0B5034600240026002576
:10091000002040F66A17B94200D100BF1846C1F363
:10092000421401F01F06012707FA06F5012C01D138
:100930000C3004E0022C01D1103000E014301AB168
:1009400007682F43076002E00768AF430760F0BD08
:100950002DE9FF4705460E460024A14600BFA046EC
:10096000B08900B100BF2C8A24F44054F0880443BD
:100970002C82AC8941F20C608443B08831890843F1
:10098000718908430443AC81AC8A24F44074B08973
:100990000443AC826846FFF7E3FD2048854202D05D
:1009A0001F48854202D1DDF80C9001E0DDF8089087
:1009B000A88900F4004040B109EBC90000EB091020
:1009C00031684900B0FBF1F707E009EBC90000EB23
:1009D000091031688900B0FBF1F76420B7FBF0F033
:1009E00004012009642101FB1078A88900F400406B
:1009F00040B1322000EBC800B0FBF1F000F007007E
:100A0000044308E0322000EB08106421B0FBF1F051
:100A100000F00F0004432C81BDE8FF870010014067
:100A20000014014000BFFEE710B504466FF004005B
:100A3000FFF782FEE11704EB5171C1F3C701074ACA
:100A400011701046007800EB4001C1EBC0104FF66A
:100A5000FF7101EAC0000249088010BD10000020AB
:100A6000120000202DE9F04F99B082460D46144641
:100A700003A814904020159000201690CDF860A097
:100A8000179000BF95F900606D1C06B9E3E0252EB4
:100A900073D100274FF0010900BF95F90060232EA4
:100AA00012D02B2E0CD02D2E02D0302E10D103E0E0
:100AB00047F001076D1C0EE047F002076D1C0AE0CD
:100AC00047F004076D1C06E047F008076D1C02E0C4
:100AD0004FF0000900BF00BFB9F1000FDDD14FF0AA
:100AE000000800BF95F90060302E01DB392E00DDD3
:100AF00007E06D1CA6F1300008EB880100EB41080F
:100B0000F0E700BF0020139095F900602E2E13D15E
:100B10006D1C00BF95F90060302E01DB392E00DD21
:100B200009E06D1CA6F13000139901EB810100EB87
:100B300041001390EEE700BF95F9006000BF6C2EF6
:100B400001D0682E03D16D1C95F9006000E000E033
:100B5000F5E700BF702E5DD008DC252E6AD0582E38
:100B600035D0632E0AD0642E69D113E0732E3CD0A9
:100B7000752E1DD0782E62D128E064E02168081D12
:100B80002060D1F800904FFA89FB594614A800F074
:100B900081FA55E02168081D2060D1F80090CDE968
:100BA00000870A22494614A8139B00F00BFB47E07C
:100BB0002168081D2060D1F80090CDE900870A2245
:100BC000494614A8139B00F087FA39E000BF21685A
:100BD000081D2060D1F80090CDE900871022494619
:100BE00014A8139B00F078FA2AE02168081D206001
:100BF000D1F800B000BF9BF900600BF1010B06B902
:100C000006E0314614A800F045FA17980028F2DAF9
:100C100000BF15E02168081D2060D1F80090002079
:100C200008210B461022CDE90010494614A800F017
:100C300053FA05E0252114A800F02CFA00E000BFCB
:100C400000BF6D1C03E0314614A800F023FA17988A
:100C50000028BFF617AF00BF179800280ADD1698C6
:100C600020B103A95046169AFFF7EEFCDDE91610F5
:100C700008441790179819B0BDE8F08F70B5044676
:100C80004FF4077094FBF0F0C6B24FF4077094FB7A
:100C9000F0F100FB114085B205E04FF4077000F061
:100CA00025F8701EC6B2002EF7D115B1284600F007
:100CB0001DF870BD00B585B001210846FFF720FC86
:100CC0000120019000200390C0200090002004909B
:100CD0000220029069460448FFF755FBC0210248F4
:100CE000FFF7BEFB05B000BD000002400146114AFF
:100CF00012884A434FF0E0235A6100229A611A4653
:100D0000126942F001021A6100BF4FF0E02210693F
:100D100000F001021AB100F48032002AF5D04FF041
:100D2000E022126922F001024FF0E0231A61002252
:100D30009A6170471200002010B58CB00446012162
:100D40000846FFF7DDFB01211020FFF7F9FB072222
:100D500009212248FFF75FFB07220A211F48FFF7FE
:100D60005AFB4FF4C06007900220089009900020C1
:100D70000A9001200B9007A91848FFF704FB039481
:100D80000020ADF81000ADF81200ADF81400ADF879
:100D900018000C20ADF8160003A91148FFF7D8FD84
:100DA00001210F48FFF7A3FD40210D48FFF796FDF5
:100DB000012240F225510A48FFF7A5FD25208DF8B4
:100DC000040003208DF805008DF806000120029034
:100DD00001A8FFF74DFB0CB010BD00000000024061
:100DE00000100140014608687047000010B586B049
:100DF000044601211020FFF793FB0920049042F2E2
:100E0000CF00ADF80C0000208DF8160003A91248A1
:100E1000FFF722FD01211048FFF7F2FC01221146E5
:100E20000D48FFF710FD4FF4E060FFF75DFB362043
:100E30008DF8040000208DF8050003208DF80600D1
:100E40000120029001A8FFF713FB01210248FFF7E0
:100E5000DDFC204606B010BD001000402DE9F04733
:100E6000044689461546E668A068871BAF4208D944
:100E7000616888192A464946FFF7A6F97019E060AB
:100E800010E0B8466168881942464946FFF79CF968
:100E9000A5EB070809EB070142466068FFF794F9E4
:100EA000C4F80C80BDE8F0872DE9F0470446894678
:100EB00017464FF0000AE56800BFD4F81080A84537
:100EC00003D9A8EB0500461E04E0A5EB0800401C72
:100ED000A1680E1AA068401BB04201D9304601E05B
:100EE000A068401B0646BE4201D2304600E03846AC
:100EF00006466168481932464946FFF765F9B2442B
:100F0000B144BF1B3544A068A84200D10025E5606C
:100F1000002FD2D15046BDE8F08710B501460A69CE
:100F2000CB689A4204D88C68641EE41AA01801E0C9
:100F3000D41A601E10BD000010B5124C03202061B1
:100F4000606111A0A0611349E1614FF480612162E9
:100F50000021A1626162E1620BA020660E49616618
:100F60001021A16600212167E16661670BA1E01DE8
:100F7000FFF73CF90AA12046FFF738F92020A071BD
:100F800010BD0000940000205465726D696E616CA4
:100F9000000000003C0100203C0500205254540099
:100FA00053454747455200000CB500200190009082
:100FB0003448006840F480303249086000BF31484E
:100FC000006800F4003000900198401C01900098E7
:100FD00018B90198B0F5A04FF1D12A48006800F483
:100FE000003010B10120009001E000200090009836
:100FF000012846D123484030006840F08050214904
:10100000403108602048006840F440401E490860B4
:101010001C48083000681B49083108600846006811
:1010200040F4004008600846006840F4A0500860A2
:101030001648091F0860081F006840F08070091FEB
:10104000086000BF0F48006800F000700028F9D069
:1010500040F205700E4908600A480830006820F028
:1010600003000849083108600846006840F00200A3
:10107000086000BF03480830006800F00C00082832
:10108000F8D10CBD00380240007000400854400701
:10109000003C024070B504460E46A568681C6168B5
:1010A000814206D320684655681CA060E068401C59
:1010B000E060D4E9011088420DD1A268216820695E
:1010C000FFF7C2FAA168884203D04FF0FF30E0601A
:1010D00001E00020A06070BD2DE9FC5F80468946DC
:1010E00015461E460C9CCDF804900127BB4605E032
:1010F0000198B0FBF5F001900BF1010B0198A842AB
:10110000F6D25E4500D9B3460D9800F00100D0B983
:10111000CCB10D9800F00200022803D116B930209E
:10112000009001E02020009009E0641E40460099F4
:10113000FFF7B0FFD8F80C00002800DA02E00CB18D
:10114000A345F2D300BFD8F80C00002835DB09E036
:10115000012E01D9761E04E0B9FBF7FAAA4500D2A8
:1011600001E06F43F4E700BF00BFB9FBF7FA0AFBE9
:101170001799134810F90A104046FFF78BFFD8F86B
:101180000C00002800DA03E0B7FBF5F7002FECD1E4
:1011900000BF0D9800F0010078B174B109E0641E41
:1011A00020214046FFF776FFD8F80C00002800DA2F
:1011B00002E00CB1A345F2D300BFBDE8FC9F0000E4
:1011C000E01400082DE9FC5F06460F46924698465B
:1011D000DDE90C45002F01DA784200E0384683460D
:1011E0004FF0010903E09BFBFAFB09F10109D3452C
:1011F000F9DAC84500D9C14634B1002F03DB05F048
:101200000400042800D1641E05F0020010B1B8F1FA
:10121000000F11D005F0010070B96CB108E0641E38
:1012200020213046FFF736FFF068002800DA02E0A0
:101230000CB1A145F3D300BFF068002836DB002FC6
:1012400005DA7F422D213046FFF724FF07E005F045
:101250000400042803D12B213046FFF71BFFF06860
:10126000002823DB05F00200022814D105F001005C
:1012700088B9B8F1000F0ED16CB108E0641E3021BE
:101280003046FFF707FFF068002800DA02E00CB1F3
:10129000A145F3D300BFF068002807DB4346524660
:1012A00039463046CDE90045FFF716FFBDE8FC9F03
:1012B0002DE9F04107460C4600F000F90646FFF71D
:1012C00091FD054600BF00F0F9F80646FFF78AFDDC
:1012D000401BA042F7D3BDE8F081002101604160CE
:1012E0007047704710B5040007D1012405E0FEF7F0
:1012F000B5FF006800B904488047204600F0A8F810
:101300000028F4D010BD00004F02000802E008C819
:10131000121F08C1002AFAD170477047002001E06F
:1013200001C1121F002AFBD17047000010B51248FE
:1013300012490163002181864FF48041C1868921D1
:1013400001874FF4807181858021C1850C498162BC
:101350000C49016100BF0C48FFF7BFFF04460B4A70
:101360000B49FEF75DFF0B48FFF7B7FF0446074A3E
:101370000749FEF755FF10BD30000020801A060017
:1013800000040240005400406C00002000000008EF
:10139000E31200088000002010B5002821D0114B76
:1013A0000022001F196803E0814203D80A464968F9
:1013B0000029F9D152B11368841A9C4204D1006803
:1013C00018441060104602E0506000E0186039B127
:1013D00002680B1A934203D10B681A4402604968F1
:1013E000416010BD240000204FF4E130FFF7A4FC61
:1013F000A820FFF719FB4FF4FA60FFF73FFCFFF757
:1014000059FC00BF00240BA10020FFF783F90FE077
:1014100084F0010424B180210B48FFF721F803E098
:1014200080210948FFF71AF832210848FFF740FFEA
:10143000EEE700000D0A206779726F207374617205
:1014400074200D0A0000000000000240800000200F
:10145000F0B50B30154D20F007010024144A0FE0C1
:1014600003688B420BD38B4205D95E1A4318476839
:10147000C3E9006700E04368136002C004E0021D96
:1014800010680028ECD12046002802D1286808B155
:101490000020F0BD064A07481060074A121A22F0E1
:1014A0000702C0E9002401202860D7E728000020B7
:1014B00024000020540500205007002010B50748E4
:1014C000006840B90420FFF70DFF0446FFF78EFCCB
:1014D0000446024804600148006810BD2C0000204A
:1014E000303132333435363738394142434445465A
:1014F0001415000800000020300000000C13000844
:101500004415000830000020200B00001C130008C8
:101510001DFEFFFF0000000001020304010203049E
:10152000060708090000000000000000000000009D
:1015300000000000000000000000000000000000AB
:0415400000000000A7
:040000050800018965
:00000001FF
