:020000040800F2
:10000000180500204D040008210200082302000802
:10001000270200082B0200082F0200080000000041
:100020000000000000000000000000003302000893
:1000300035020008000000003702000839020008FD
:1000400067040008670400086704000867040008E4
:1000500067040008670400086704000867040008D4
:1000600067040008670400086704000867040008C4
:1000700067040008670400086704000867040008B4
:1000800067040008670400086704000867040008A4
:100090006704000867040008670400086704000894
:1000A0006704000867040008670400086704000884
:1000B0006704000867040008670400086704000874
:1000C0006704000867040008670400086704000864
:1000D00067040008B71800086704000867040008F0
:1000E0006704000867040008670400086704000844
:1000F0006704000867040008670400086704000834
:100100006704000867040008670400086704000823
:100110006704000867040008670400086704000813
:100120006704000867040008670400086704000803
:1001300067040008670400086704000867040008F3
:1001400067040008670400086704000867040008E3
:1001500067040008670400086704000867040008D3
:1001600067040008670400086704000867040008C3
:1001700067040008670400086704000867040008B3
:100180006704000867040008DFF80CD001F0E4FD04
:1001900000480047CB010008180500201CB50446A4
:1001A0000121084600F024FF01208DF80400002002
:1001B0008DF8060000948DF8070002208DF80500E8
:1001C0006946164800F04AFA1CBD1CB500BF4FF442
:1001D000E13001F01AFB542001F088FA02E04020DF
:1001E000FFF7DCFF01F082FD0028F8D18020FFF747
:1001F000D5FF11E0694601A801F066FD04461CB96F
:100200004020FFF7CBFF02E08020FFF7C7FF4FF44D
:100210007A7001F0CDFA00BFECE700000000024068
:10022000704700BFFEE700BFFEE700BFFEE700BF6C
:10023000FEE7704770477047704700000CB500201C
:10024000019000907648006840F48030744908605E
:1002500000BF7348006800F4003000900198401C13
:100260000190009818B90198B0F5A04FF1D16C48F1
:10027000006800F4003010B10120009001E000207F
:1002800000900098012846D165484030006840F051
:1002900080506349403108606248006840F4404043
:1002A000604908605E48083000685D4908310860B0
:1002B0000846006840F4004008600846006840F4C2
:1002C000A05008605848091F0860081F006840F0E7
:1002D0008070091F086000BF5148006800F000707E
:1002E0000028F9D040F20570504908604C480830A9
:1002F000006820F003004A49083108600846006899
:1003000040F00200086000BF45480830006800F077
:100310000C000828F8D10CBD10B54548006840F421
:100320007000434908603E48006840F001003C49C5
:10033000086000203A4908310860394800683D49A2
:100340000840374908603C48091D0860081F0068DC
:1003500020F48020091F0860002031490C3108601A
:10036000FFF76CFF4FF0006031498039086010BD25
:1003700070B500200022022300240221284D0835F8
:100380002D6805F00C0020B1042806D0082834D1CF
:1003900007E02A4D2A4E356033E02A4D284E35605D
:1003A0002FE01F4D2D1D2D68C5F380541C4D2D1DB4
:1003B0002D6805F03F0154B1224DB5FBF1F5184E03
:1003C000361D3668C6F3881605FB06F209E01B4D9C
:1003D000B5FBF1F5124E361D3668C6F3881605FBDF
:1003E00006F20F4D2D1D2D68C5F301456D1C6B00E8
:1003F000B2FBF3F5124E356003E0104D104E356040
:1004000000BF00BF064D08352D68C5F303150E4E1D
:10041000705D0B4D2D68C540094E356070BD000004
:10042000003802400070004008544007003C024081
:1004300088ED00E0FFFFF6FE103000240024F400F9
:100440000000002000127A000400002006488047C7
:1004500006480047FEE7FEE7FEE7FEE7FEE7FEE7A9
:10046000FEE7FEE7FEE7FEE7190300088901000842
:1004700032490143324A1160704770B500210023B0
:100480000F22C4781CB32E4C246804F4E064C4F535
:10049000E064C4F30721C1F10404E3B20A414478E3
:1004A0009C40E1B28478144021430C07210E254C76
:1004B00005786155047804F01F050124AC400578E7
:1004C0006D11AD0005F1E025C5F8004109E00478A3
:1004D00004F01F050124AC401B4D0678761145F849
:1004E000264070BD194A0A400243154B1B1F1A6073
:1004F000704739B1124A121D12680243104B1B1D7E
:100500001A6006E00E4A121D126882430C4B1B1D36
:100510001A607047042808D14FF0E021096941F0C2
:1005200004014FF0E022116107E04FF0E02109697A
:1005300021F004014FF0E022116170470000FA053C
:100540000CED00E000E400E080E100E080FFFF1F30
:1005500010B504469848844208D10121084600F0AD
:10056000B2FD0021012000F0AEFD76E09348844208
:1005700008D10121022000F0A6FD0021022000F098
:10058000A2FD6AE08E48844208D10121042000F0D7
:100590009AFD0021042000F096FD5EE08948844227
:1005A00008D10121082000F08EFD0021082000F074
:1005B0008AFD52E08448844208D10121102000F0D5
:1005C00082FD0021102000F07EFD46E07F4884423D
:1005D00008D10121202000F076FD0021202000F02C
:1005E00072FD3AE07A48844208D10121402000F0AF
:1005F0006AFD0021402000F066FD2EE0754884422F
:1006000008D10121802000F05EFD0021802000F053
:100610005AFD22E07048844208D10121801500F083
:1006200052FD0021A01500F04EFD16E06B488442FB
:1006300008D10121401500F046FD0021601500F0B1
:1006400042FD0AE06648844207D10121001500F00E
:100650003AFD0021201500F036FD10BDF0B50A4628
:1006600000210023002400BF3DE0012505FA01F32D
:10067000156805EA03049C4234D105684F0003263F
:10068000BE40B543056015794E00B5400668354358
:1006900005601579012D02D01579022D16D18568D6
:1006A0004F000326BE40B543856055794E00B540E6
:1006B000866835438560456801268E40B5434560B0
:1006C000456896798E40B6B235434560C5684F009F
:1006D0000326BE40B543C560D5794E00B540C66817
:1006E0003543C560491C1029BFD3F0BD4FF6FF71DB
:1006F00001600021017141718171C171704708B5BC
:100700004FF480320092009A0A430092009AC2612C
:10071000C161009AC261C2690092C269009208BDBB
:100720000246002013690B400BB1012000E00020BD
:1007300070470146086980B270470246002053693D
:100740000B400BB1012000E00020704701464869D2
:1007500080B2704701837047418370470AB10183BB
:1007600000E0418370474161704742694A404261FD
:100770007047F0B5002300244D07ED0E02FA05F393
:10078000CE1000F1200555F826504E07F70E0F2623
:10079000BE40B543CF1000F1200646F82750CE10DA
:1007A00000F1200555F8265045EA0304CE1000F16B
:1007B000200545F82640F0BD00000240000402403C
:1007C00000080240000C02400010024000140240E9
:1007D00000180240001C0240002002400024024099
:1007E0000028024010B50446F848844209D101218E
:1007F000480500F09BFC00214FF4001000F096FC2F
:1008000018E0F348844209D10121880500F08EFCEC
:1008100000214FF4800000F089FC0BE0ED48844299
:1008200008D10121C80500F081FC00214FF400002F
:1008300000F07CFC10BD2DE9FF4704460D46002664
:10084000B1460427DFF89083A6884FF6C0700640B3
:10085000684600F0FCFADDF80880E048B8FBF0F0EC
:100860001FFA80F946EA0906A68020884FF6FE7135
:10087000084020800026DA49286888420CD8286879
:100880004000B8FBF0F087B2042F00DA04273E43A3
:1008900009F10100208427E0E8884BF6FF718842C7
:1008A00006D1286800EB4000B8FBF0F087B209E001
:1008B000286800EBC00101EB0010B8FBF0F087B234
:1008C00047F48047C7F30B0008B947F0010747F426
:1008D000004006434FF4967009FB00F04FF47A7124
:1008E00090FBF1F0401C2084A683208840F001009A
:1008F000208026884FF6F5300640A888698908438D
:1009000006432680A889298908432081BDE8FF87FE
:1009100041F288310160002181804BF6FF71C18076
:100920000021018141814FF480418181704721B1D3
:10093000028842F00102028004E002884FF6FE7352
:100940001A400280704729B1828C4FF6EF731A402B
:10095000828403E0828C42F01002828470470A464F
:100960000021818C4FF6F073194002F00F031943F8
:100970008184704721B1028842F48072028004E0D1
:1009800002884FF6FF631A400280704721B1028847
:1009900042F40072028004E002884FF6FF531A40CE
:1009A0000280704712B141F0010101E001F0FE0147
:1009B0000182704721B1028842F48062028004E023
:1009C00002884FF6FF331A40028070470A46002122
:1009D00081894FF60173194002F0FE0319438181AA
:1009E000704721B1828942F00102828104E082894C
:1009F0004FF6FE731A408281704721B1028842F09F
:100A00004002028004E002884FF6BF731A40028061
:100A1000704721B1028842F40042028003E002885C
:100A2000C2F30E020280704721B9028842F08002B0
:100A3000028004E002884FF67F731A4002807047FC
:100A4000B1F5804F05D0828B4BF6FF731A4082833D
:100A500003E0828B42F4804282837047B1F5006FDD
:100A600004D1028842F40062028004E002884FF25E
:100A7000FF731A4002807047B1F5005F04D102880D
:100A800042F40052028004E002884DF6FF731A40DF
:100A90000280704721B1028842F01002028004E017
:100AA00002884FF6EF731A40028070470182704748
:100AB0000146088AC0B2704721B1028842F48052D0
:100AC000028004E002884EF6FF731A4002807047ED
:100AD000B1F5006F04D1028842F40062028004E0A4
:100AE00002884FF2FF731A400280704721B10288DA
:100AF00042F02002028004E002884FF6DF731A40C1
:100B0000028070470146088B0012704721B182882D
:100B100042F40062828004E082884FF2FF731A4040
:100B20008280704721B1828842F48052828004E042
:100B300082884EF6FF731A408280704708B50246DD
:100B400000200090009200980844009000980088CF
:100B500008BD1AB183880B43838002E083888B43EE
:100B60008380704770B502460024002500230020D2
:100B7000958A138B1B0445EA030626F07F4404EA9A
:100B800001068E4201D1012000E0002070BD10B5A9
:100B900001460020002300228B8A0A8B120443EABC
:100BA000020424F07F4010BD0CB502460020002353
:100BB0000193009300920B0F019321F07F41019B61
:100BC00083B1009B1433009310E0000000540040F8
:100BD00000580040005C004000127A0040420F00C4
:100BE000A0860100090C009B18330093009B1B6832
:100BF0000B400BB1012000E000200CBD002221F0D1
:100C00007F42D3438382704730B5024600200023E1
:100C1000948801F0E06504EA154321F07F41948A4D
:100C20000C4014B10BB1012000E0002030BD0022C7
:100C300021F07F42D343838270470000F948006867
:100C400040F00100F74908600020F64908310860CB
:100C5000F4480068F4490840F2490860F348091D67
:100C60000860F348EF4984310860F0481038091DE6
:100C70000860EC48006820F48020EA490860002001
:100C8000E8490C310860E7498C3108607047002161
:100C9000E44A921C117011460870704710B5014665
:100CA0000022002300204A11012A02D1DD4C2368D2
:100CB00008E0022A03D1DB4C7034236802E0D94CEF
:100CC0007434236801F01F02012494401C400CB1CD
:100CD000012000E0002010BD38B500200090002465
:100CE000002500BF3120FFF7D9FF05460098401CC2
:100CF00000900098B0F5A04F01D0002DF2D0312027
:100D0000FFF7CCFF08B1012400E00024204638BDE5
:100D100001460020C34A106820F0F80040EAC100F4
:100D200010607047C349086070470021BD4A7032A7
:100D300011701170012802D004280AD104E00121A9
:100D4000B84A7032117005E00521B64A7032117050
:100D500000E000BF00BF7047B7490860704770B53A
:100D6000049C41EA82150126C6EB530645EA064576
:100D7000054345EA0465AB4E361D356070BDAD498F
:100D800008667047820142EA0172A64B84331A60FA
:100D90007047A8498866704710B5830143EA01632C
:100DA00043EA02739F4C8834236010BDA149086751
:100DB0007047A049C864704702460020994B083329
:100DC000186820F0EC6042EA01031843954B0833A1
:100DD0001860704702460020924B0833186820F0D4
:100DE000784042EA010318438E4B0833186070477D
:100DF000014600208B4A0832106820F003000843A7
:100E00001060704787480830006800F00C00704799
:100E100001460020834A0832106820F0F0000843A1
:100E200010607047014600207E4A0832106820F4A6
:100E3000E05008431060704701460020794A0832AC
:100E4000106820F4604040EAC10010607047F0B5BF
:100E5000002100220024022500260223714F0837BA
:100E60003F6807F00C0121B1042905D0082937D1CA
:100E700005E0724F076036E0714F076033E0694F5D
:100E80003F1D3F68C7F38056664F3F1D3F6807F020
:100E90003F036EB16A4FB7FBF3F7DFF888C10CF17F
:100EA000040CDCF800C0CCF3881C07FB0CF40CE04D
:100EB000624FB7FBF3F7DFF86CC10CF1040CDCF800
:100EC00000C0CCF3881C07FB0CF4564F3F1D3F6855
:100ED000C7F301477F1C7D00B4FBF5F7076002E014
:100EE000564F076000BF00BF4E4F08373F6807F0FE
:100EF000F0010909534F7A5C0768D7404760494FB2
:100F000008373F6807F4E051890A4E4F7A5C47681A
:100F1000D7408760434F08373F6807F46041490B6B
:100F2000484F7A5C4768D740C760F0BD002100F4A5
:100F30004072B2F5407F0AD13A4A0832116821F472
:100F4000F811414A02401143364A08321160354ACD
:100F500070321268C0F30B031A43324B70331A60BD
:100F60007047354944390860704733494039086053
:100F7000704736490860704701460020294A8C3284
:100F8000106820F01F004A1E1043264A8C32106061
:100F9000704701460020234A8C32106820F4F85034
:100FA0004A1E40EA02201F4A8C32106070470146F8
:100FB00000201C4A8C32106820F440100843106056
:100FC000704701460020174A8C32106820F4400018
:100FD00008431060704701460020124A8C321068A6
:100FE00020F440300843106070471949086070478A
:100FF00039B10C4A3032126802430A4B30331A605E
:1010000006E0084A303212688243064B30331A60D9
:101010007047F9B1034A343212680243014B34334A
:101020001A601CE000380240FFFFF6EA103000248E
:101030000030002000004742800E47420024F400A8
:1010400000127A0014000020FFFCFF0F5C014742F1
:10105000E01147428F4A126882438E4B1A607047F4
:1010600039B18C4A121D126802438A4B1B1D1A604B
:1010700006E0884A121D12688243864B1B1D1A60C7
:10108000704739B1834A0C3212680243814B0C33EA
:101090001A6006E07F4A0C32126882437D4B0C33A3
:1010A0001A60704739B17B4A103212680243794B9B
:1010B00010331A6006E0774A103212688243754B8B
:1010C00010331A60704739B1724A243A12680243E9
:1010D000704B243B1A6006E06E4A243A1268824341
:1010E0006C4B243B1A60704739B16A4A203A126847
:1010F0000243684B203B1A6006E0664A203A1268B9
:101100008243644B203B1A60704739B1614A1C3AF4
:10111000126802435F4B1C3B1A6006E05D4A1C3AB2
:10112000126882435B4B1C3B1A60704739B1594AC5
:10113000143A12680243574B143B1A6006E0554AB2
:10114000143A12688243534B143B1A60704739B10A
:10115000504A103A126802434E4B103B1A6006E0A8
:101160004C4A103A126882434A4B103B1A6070474F
:1011700039B1484A1C3212680243464B1C331A608C
:1011800006E0444A1C3212688243424B1C331A6008
:10119000704739B13F4A2032126802433D4B203339
:1011A0001A6006E03B4A203212688243394B2033F2
:1011B0001A60704739B1374A243212680243354BFE
:1011C00024331A6006E0334A243212688243314BDA
:1011D00024331A60704739B12E4A2C321268024308
:1011E0002C4B2C331A6006E02A4A2C3212688243B8
:1011F000284B2C331A60704739B1264A30321268B6
:101200000243244B30331A6006E0224A303212681F
:101210008243204B30331A607047012808D11D49A2
:101220003C31096841F008011A4A3C32116007E07C
:1012300018493C31096821F00801164A3C32116016
:10124000704739B1134A273A12780243114B273BB2
:101250001A7006E00F4A273A127882430D4B273B5B
:101260001A7070470B484030006840F080700949A0
:1012700040310860704701460020064A283A12684B
:101280000A400AB1012000E00020704701492639D8
:10129000087070473438024010B50446FA4884425A
:1012A00008D101211020FFF752FF00211020FFF785
:1012B0004EFF57E0F548844209D101214804FFF769
:1012C00035FF00214FF40030FFF730FF4AE0F048CF
:1012D000844209D101218804FFF728FF00214FF43F
:1012E0008020FFF723FF3DE0EA48844209D1012135
:1012F000C804FFF71BFF00214FF40020FFF716FF83
:1013000030E0E548844209D101210805FFF70EFFCE
:1013100000214FF48010FFF709FF23E0DF488442EB
:1013200008D101212020FFF712FF00212020FFF724
:101330000EFF17E0DA48844209D101218807FFF740
:10134000F5FE00214FF08040FFF7F0FE0AE0D5489F
:10135000844207D101214005FFF7E8FE0021600526
:10136000FFF7E4FE10BD2DE9FF4705460E460024B9
:10137000A14600BFA046B08900B100BF2C8A24F46A
:101380004054F08804432C82AC8941F20C608443C1
:10139000B08831890843718908430443AC81AC8A21
:1013A00024F44074B0890443AC826846FFF74FFDD3
:1013B000B548854202D0B948854202D1DDF80C908B
:1013C00001E0DDF80890A88900F4004040B109EB85
:1013D000C90000EB091031684900B0FBF1F707E0E4
:1013E00009EBC90000EB091031688900B0FBF1F787
:1013F0006420B7FBF0F004012009642101FB1078A0
:10140000A88900F4004040B1322000EBC800B0FBD6
:10141000F1F000F00700044308E0322000EB081070
:101420006421B0FBF1F000F00F0004432C81BDE813
:10143000FF874FF41651016000218180C180018136
:101440000C21418100218181704710B502460020A6
:10145000108A20F470600B884C8823438C882343C7
:10146000CC8823431843108210BD002101804180A5
:101470008180C180704721B1828942F4005282810B
:1014800004E082894DF6FF731A4082817047028B17
:1014900002F47F420283028B0A430283704721B128
:1014A000828942F40042828103E08289C2F30E0203
:1014B0008281704721B1828A42F40062828204E014
:1014C000828A4FF2FF731A4082827047C1F308028A
:1014D0008280704701468888C0F308007047028AFE
:1014E0004FF6F0731A400282028A0A430282704762
:1014F00021B1828942F00202828104E082894FF6A2
:10150000FD731A408281704782894FF2FF731A403F
:10151000828182890A4382817047028A4FF6DF7393
:101520001A400282028A0A430282704721B1028A6B
:1015300042F48042028204E0028A4BF6FF731A40B2
:1015400002827047818941F001018181704721B198
:10155000828A42F00802828204E0828A4FF6F773A0
:101560001A4082827047028BD2B20283028B42EA17
:1015700001220283704721B1828A42F020028282D6
:1015800004E0828A4FF6DF731A408282704721B1ED
:10159000828A42F01002828204E0828A4FF6EF7360
:1015A0001A4082827047828A4FF6FB731A40828209
:1015B000828A0A438282704721B1828A42F0020203
:1015C000828204E0828A4FF6FD731A40828270475D
:1015D0001AB1838A0B43838202E0838A8B4383821E
:1015E0007047F0B50346002400260025002040F691
:1015F0006A17B94200D100BF1846C1F3421401F086
:101600001F06012707FA06F5012C01D10C3004E072
:10161000022C01D1103000E014301AB107682F43BA
:10162000076002E00768AF430760F0BD0246002094
:10163000B1F5007F00D100BF13880B400BB1012032
:1016400000E00020704701F40072B2F5007F00D185
:1016500000BFCA430280704770B5024600240023D1
:101660000025002040F66A16B14200D100BFC1F348
:10167000421501F01F03012606FA03F3012D13D1D1
:101680009689334017E000000010014000440040FC
:1016900000480040004C0040005000400014014051
:1016A00000780040007C0040022D02D1168A3340B1
:1016B00001E0968A33400C12012606FA04F41688DB
:1016C000344013B10CB1012000E0002070BD10B512
:1016D0000022002340F66A14A14200D100BF0A1282
:1016E00001249440A3B2DC43048010BD10B504462D
:1016F0006FF00400FEF70EFFE11704EB5171C1F328
:10170000C701394A11701046007800EB4001C1EB67
:10171000C0104FF6FF7101EAC0003449088010BDC7
:101720000146314A12784A434FF0E0235A610022C1
:101730009A611A46126942F001021A6100BF4FF025
:10174000E022106900F001021AB100F48032002A90
:10175000F5D04FF0E022126922F001024FF0E023B1
:101760001A6100229A6170470146204A12884A4352
:101770004FF0E0235A6100229A611A46126942F042
:1017800001021A6100BF4FF0E022106900F001026F
:101790001AB100F48032002AF5D04FF0E02212692D
:1017A00022F001024FF0E0231A6100229A61704793
:1017B00070B504464FF4077094FBF0F0C6B24FF4D6
:1017C000077094FBF0F100FB114085B205E04FF487
:1017D0000770FFF7C9FF701EC6B2002EF7D115B112
:1017E0002846FFF7C1FF70BD24000020260000201E
:1017F00000BF704700BF4E4A128802F04002002A24
:10180000F9D0C2B24A4B9A80704710B588B00446EE
:1018100001210846FFF7ECFB01211020FFF742FCF5
:10182000072209214348FEF7A4FF07220A21414865
:10183000FEF79FFF4FF4C060069002208DF81C0059
:101840008DF81D0000208DF81E0001208DF81F006E
:1018500006A93848FEF702FF02940020ADF80C00FC
:10186000ADF80E00ADF81000ADF814000C20ADF886
:10187000120002A92E48FFF776FD01212C48FFF740
:10188000FAFD40212A48FFF7DEFE012240F22551F1
:101890002748FFF7A6FE25208DF8040003208DF8C9
:1018A00005008DF8060001208DF8070001A8FEF75D
:1018B000E4FD08B010BD10B540F225511C48FFF7FB
:1018C000CBFE10B31A48FFF705FEC4B21A480088D1
:1018D00000F40040C8B91848008800F4804060B1A6
:1018E0000A2C03D000201449088020E01248008808
:1018F00040F400401049088019E00D2C06D10E4834
:10190000008840F480400C49088010E00A480088B4
:10191000C0F30D0009490C5407480088401C0649D3
:10192000088008460088C72801DD0020088010BD17
:1019300000100140000002402C0000203C0000206C
:1019400030B502460B46FF20002113E0555C68408D
:1019500008240BE000F0800525B1312585EA40051B
:10196000E8B201E04506280E651EECB2002CF1DC61
:101970004D1CA9B29942E9DB30BD70B505460E4653
:10198000144631462846FFF7DBFFA04202D04FF055
:10199000FF3070BD0020FCE770B505460C46012104
:1019A0009348FEF7E7FF00BF92499148FFF7DAF846
:1019B0000028F9D06806010E00228D48FEF7F2FFDC
:1019C00000BF8D498A48FFF7CDF80028F9D021786B
:1019D0008748FFF76BF800BF8749891C8448FFF7E9
:1019E000C1F80028F8D061788148FFF75FF800BFA0
:1019F0008149891C7E48FFF7B5F80028F8D00121FD
:101A00007B48FEF7C3FF002070BD2DE9F04105467D
:101A10000C461646002701217548FEF7ABFF00BFB4
:101A200074497348FFF79EF80028F9D06806010E44
:101A300000226F48FEF7B6FF00BF6F496C48FFF702
:101A400091F80028F9D00EE021786948FFF72EF8C8
:101A500000BF6949891C6648FFF784F80028F8D060
:101A6000781C87B2641CB742EEDB01216048FEF7A8
:101A70008DFF0020BDE8F08170B504460E46154686
:101A800000BF4FF400315A48FFF78EF80028F8D114
:101A900001215748FEF76EFF00BF56495448FFF733
:101AA00061F80028F9D06006010E00225048FEF7C8
:101AB00079FF00BF50494E48FFF754F80028F9D08D
:101AC00001214B48FEF733FF21464948FEF7EEFF60
:101AD00000BF4949891C4648FFF744F80028F8D060
:101AE00001214348FEF746FF00BF42494048FFF747
:101AF00039F80028F9D06006010E01223C48FEF7B3
:101B000051FF00BF3B49491C3948FFF72BF800281B
:101B1000F8D016E0012D07D100213548FEF74AFF25
:101B200001213348FEF732FF32493F313048FFF799
:101B300019F830B12E48FEF7BBFF3070761C681ED6
:101B400085B2002DE6D101212948FEF733FF0020A0
:101B500070BD10B501210220FFF74AFA04220821C6
:101B60002648FEF706FE042207212448FEF701FE60
:101B7000022023490871012088714FF4C070086069
:101B80000020C87148711D48FEF768FD0121480515
:101B9000FFF777FA1B481C490860002088804FF443
:101BA0008040C880002008814FF480604881000197
:101BB000888101210E48FEF7BAFE13490C48FEF752
:101BC0003AFE10BD70B504460D461646324629460B
:101BD0002046FFF751FF70BD70B504460D4616460E
:101BE000324629462046FFF710FF70BD70470000BF
:101BF000005400400100030082000700000402407E
:101C000030000020A0860100040100202DE9FC41E5
:101C100007460C461546062269463846FFF7D2FFAE
:101C2000064616B13046BDE8FC819DF8022002212F
:101C30006846FFF7A2FE38B99DF8052002210DF194
:101C40000300FFF79AFE10B16FF00100EBE79DF87B
:101C500000109DF8010061F31F2020609DF8031023
:101C60009DF8040061F31F2028600020DBE72DE9C8
:101C7000F04106460C4615462A4621463046FFF7F7
:101C8000C5FF074645F27351206848434AF6C871BC
:101C9000C1EB6030206043F2D40128684843401310
:101CA00028603846BDE8F08170B504460D462A46E6
:101CB00021464420FFF7DBFF70BD10B50222224908
:101CC0004420FFF789FF10BD70B505460E46FFF7AB
:101CD000F4FF044644B943F69820FFF787FF3146E6
:101CE0002846FFF7E1FF0446204670BD38B5FFF7F0
:101CF00030FF022215494420FFF76EFF04460CB165
:101D0000204638BD032269464420FFF75BFF0446A6
:101D10000CB12046F5E79DF8022002216846FFF746
:101D20002CFE04460CB12046EBE70020E9E7014613
:101D30004FF0FF30704708B1054900E00249054AFD
:101D400011607047442070479A1D00089E1D0008CE
:101D50009C1D000838000020064C074D06E0E06896
:101D600040F0010394E8070098471034AC42F6D3E2
:101D7000FEF70EFAA01D0008C01D000802E008C80A
:101D8000121F08C1002AFAD170477047002001E0F5
:101D900001C1121F002AFBD1704724002416F32D25
:101DA000C01D0008000000203C0000007C1D000851
:101DB000FC1D00083C000020DC0400008C1D000815
:101DC000007A030A00000000000000000102030482
:101DD00006070809000000000102030401020304D1
:101DE00006070809000000000000000000000000D5
:0C1DF00000000000000000009A1D000828
:040000050800018965
:00000001FF
